:020000040800F2
:100000005051002055020008611F0008D11D000852
:100010005D1F00084D05000849240008000000008D
:10002000000000000000000000000000E11F0008C8
:100030007505000800000000711F00081920000865
:100040006F0200086F0200086F0200086F020008CC
:100050006F0200086F0200086F0200086F020008BC
:100060006F0200086F0200086F0200086F020008AC
:100070006F0200086F0200086F0200086F0200089C
:100080006F0200086F0200086F0200086F0200088C
:100090006F0200086F0200086F0200086F0200087C
:1000A0006F0200086F0200086F0200086F0200086C
:1000B0006F0200086F0200086F0200086F0200085C
:1000C0006F0200086F0200086F0200086F0200084C
:1000D0006F0200083D2400086F0200086F0200084C
:1000E0006F0200086F0200086F0200086F0200082C
:1000F0006F020008F92000086F0200086F02000874
:100100006F0200086F0200086F0200086F0200080B
:100110006F0200086F0200086F0200086F020008FB
:100120006F0200086F0200085D0500086F020008FA
:100130006F0200086F0200086F0200086F020008DB
:100140006F0200086F0200086F0200086F020008CB
:100150006F0200086F020008690500086F020008BE
:100160006F0200086F0200086F0200086F020008AB
:100170006F0200086F0200086F0200080000000014
:100180006F0200086F02000800F002F800F052F859
:1001900014A696E8000CB244B344DA4501D100F04D
:1001A00049F8BAE80F000FA696E83000A5EB040561
:1001B00004EB0607AAEB0704A7F101074FEA1515A0
:1001C0004FEA3414A4F10104AC4201D300F032F838
:1001D00013F0010F18BFFB1A43F0010300F001F800
:1001E000DBE71847B0420000D0420000103A24BFBD
:1001F00078C878C1FAD8520724BF30C830C144BF8C
:1002000004680C6070470000704700000023002461
:1002100000250026103A28BF78C1FBD8520728BF16
:1002200030C148BF0B6070471FB504F0AFF81FBD69
:1002300010B510BD00F04FF91146FFF7F5FF02F0C1
:1002400005F900F06DF903B4FFF7F2FF03BC00F00D
:1002500075F900000948804709480047FEE7FEE7B6
:10026000FEE7FEE7FEE7FEE7FEE7FEE7FEE7FEE766
:1002700004480549054A064B70470000E520000880
:1002800089010008504B002050510020504D0020A3
:10029000504D002053EA020C00F069802DE9F04B2C
:1002A0004FF00006002B1FBFB3FA83F503FA05F4E5
:1002B00024FA05F65E4012BF1643B2FA82F502FA3E
:1002C00005F4C5F120051EBF22FA05FC44EA0C0422
:1002D000203556EA044C4FEA144418BF641C4FF012
:1002E00000084FF00009904271EB030C39D300294C
:1002F00019BFB1FA81F701FA07F6B0FA80F700FAF0
:1003000007F6C7F120071EBF20FA07FC46EA0C06D5
:100310002037B6FBF4FCA7EB0507103F07F01F0BD7
:10032000CBF120062CFA06F60CFA0BFB44BFB346C1
:100330000026202FA4BF5E464FF0000B5BEA060CA0
:1003400008BF4FF0010B19EB0B0948EB0608ABFB9C
:10035000027C06FB02CC0BFB03CCC01B71EB0C0137
:10036000C1E70B46024641464846BDE8F08B13B54F
:10037000084318BF4FF0FF300146AFF30080BDE8DF
:100380001C407047032A40F2308010F0030C00F04C
:10039000158011F8013BBCF1020F624498BF11F8BF
:1003A00001CB00F8013B38BF11F8013BA2F1040278
:1003B00098BF00F801CB38BF00F8013B11F00303F0
:1003C00000F05780083AC0F0088051F8043B083A22
:1003D00051F804CBA0E80810F5E7121D5CBF51F8F6
:1003E000043B40F8043BAFF30080D20724BF11F870
:1003F000013B11F801CB48BF11F8012B24BF00F8D5
:10040000013B00F801CB48BF00F8012B704702F018
:10041000FF0343EA032242EA024200F002B84FF02F
:10042000000200B5134694469646203922BFA0E844
:100430000C50A0E80C50B1F12001BFF4F7AF090750
:1004400028BFA0E80C5048BF0CC05DF804EB890041
:1004500028BF40F8042B08BF704748BF20F8022B84
:1004600011F0804F18BF00F8012B7047704770479C
:10047000704710B5203AC0F00B80B1E81850A0E8E2
:100480001850B1E81850A0E81850203ABFF4F5AF62
:100490005FEA027C24BFB1E81850A0E8185044BFBE
:1004A00018C918C0BDE810405FEA827C24BF51F82B
:1004B000043B40F8043B08BF7047D20728BF31F81F
:1004C000023B48BF11F8012B28BF20F8023B48BF70
:1004D00000F8012B7047754600F02CF8AE46050079
:1004E0006946534620F00700854618B020B5FFF74F
:1004F000BFFEBDE820404FF000064FF000074FF070
:1005000000084FF0000BAC46ACE8C009ACE8C009ED
:10051000ACE8C009ACE8C00921F007018D4670477E
:1005200010B50446AFF300802046BDE81040FFF749
:100530008ABE0000004870471000002001491820C2
:10054000ABBEFEE72600020070470000FEE7000099
:100550004FF47A7001F08EFFFAE7000040F2B0101D
:10056000C2F2000000F01CB940F21020C2F20000FC
:1005700000F016B9704700007047000072B600BF67
:10058000FEE70000002804BF01207047B0B5044614
:1005900090F8200010B9204600F06EF8206801683D
:1005A00041F00101016000F05FFB054620684168F1
:1005B000C90705D100F058FB401B0B28F6D310E00B
:1005C000016821F00201016000F04EFB054600BF0A
:1005D0002068416889070DD500F046FB401B0B28B9
:1005E000F6D3606A052140F400306062012084F88F
:1005F0002010B0BD217E0268012922F0800208BFD0
:1006000080320260617E0268012922F0400208BF48
:1006100040320260A17E0268012922F0200208BF58
:1006200020320260E17E0268012922F0100218BF28
:1006300010320260217F0268012922F0080208BFFF
:1006400008320260617F0268012922F0040208BFBB
:1006500004320260D4E901C2D4E9033561691A4366
:100660002A431143ACF101021143C1610020012171
:10067000606284F82010B0BD80B586B046F20041BB
:100680000068C4F20001002288420592CDE90322ED
:100690000292019202D006B080BD00BF43F6300046
:1006A0000092C4F20200036943F00073036103691E
:1006B00003F000730093009B0092036843F008036B
:1006C00003600068022300F00800009000980320F7
:1006D000019004900920059001F5D43001A9CDE9DD
:1006E000023200F0F1F906B080BD000070B5866DF1
:1006F000044600F0B9FA94F83510022928D10546CD
:100700002068216C026822F016020260426922F021
:100710008002426109B9A16C19B1016821F0080198
:100720000160016821F00101016000BF20680068DC
:10073000C00715D000F098FA401B0628F6D32020F9
:100740006065032084F83500002184F8341070BD02
:10075000802060650120002184F8341070BD00BF46
:10076000E06D3F2101FA00F0B060012084F835000F
:100770000020002184F8341070BD000090F835107E
:10078000022909D1052180F835100068016821F09F
:100790000101016000207047802141650120704700
:1007A000F0B581B00021009140F20801C2F20001D1
:1007B0000B68D0E9166148F2B51537680822C1F612
:1007C0004E358A403A42A3FB05350CD003681C68BD
:1007D000640708D51C6824F004041C60B260426DF4
:1007E00042F00102426501228A403A4208D0036881
:1007F0005B691B0604D5B260426D42F0020242659D
:1008000004228A403A4208D003681B689B0704D53B
:10081000B260426D42F00402426510228A403A42C0
:1008200019D001680B681B0715D5B2600B680A6800
:100830005B0309D4D20509D40A6822F008020A60D1
:10084000016C29B907E000BF110341D4016C11B15B
:10085000044688472046C26D202101FA02F33B423C
:1008600043D001680F68FF063FD5B36090F835703C
:100870000B68052F1CD123F016030B604B6923F086
:1008800080034B61036C0BB9836C1BB10B6823F0C5
:1008900008030B603F219140B160012180F83510C1
:1008A000016D0022002980F8342054D158E000BFA7
:1008B0000A685B0310D4D20512D40A6822F0100231
:1008C0000A60012180F83510002180F8341007E01B
:1008D000816C0029BCD1BEE7110301D4416C00E05A
:1008E000C16B11B1044688472046416DC1B3416DCB
:1008F000C9072ED0052180F835100168AA0A0B68B7
:1009000023F001030B60009B0133934200931AD83C
:100910000B68DB0717D0009B01339342009312D87A
:100920000B68DB070FD0009B0133934200930AD87A
:100930000B68DB0707D0009B01339342009302D87A
:100940000B68DB07DFD1012180F83510002180F82A
:100950003410C16C21B101B0BDE8F040084700BFC0
:1009600001B0F0BD2DE9F041044600F07DF9ECB195
:100970000546022084F835000020216884F8340000
:10098000086820F00100086021680868C00711D0DD
:1009900000F06AF9401B0528F6D90325202303201F
:1009A000636584F83550BDE8F08100BF0120BDE8E3
:1009B000F08100BF086848F23F02CFF21002D4E98C
:1009C000013500EA020C04F10C0898E8C10143EA81
:1009D0000C032B431843D4E9072E3043384310430C
:1009E000626A40EA0E00042A40EA08031CD1206B28
:1009F000D4E90A2E40EA0E00184308604869BEF1A7
:100A0000000F20F0030040EA020040F0040C11D077
:100A1000B8F5005F36D0B8F1000F45D1022A46D0B4
:100A2000012A3BD032B942E00B60486920F0070050
:100A300040EA020C01F0F8004AF6AB221038CAF680
:100A4000AA22A0FB02231A0944F22C43C1F814C0C5
:100A5000C0F600039A5C40F2FF335F284FF03F007E
:100A600021EA030100FA02F088BF0431C4E916123A
:100A70008860002301250020636584F83550BDE8B7
:100A8000F08100BF032AD5D8012540230120DFE8EB
:100A900002F0030E030500BF82E700BFAEF1C07095
:100AA000B0FA80F0400904E0032A04D3C2D1CEF3A7
:100AB00000600028BED0012540230120636584F832
:100AC0003550BDE8F08100002DE9F04F83B000F112
:100AD000200200F13E4741F60045009207F1FF7702
:100AE000C4F2020508224FEAB726A84208BF07222F
:100AF00000254FF000084FF00009072E38BF4FEADD
:100B0000B72201920AE000BF09F1010908F10208C9
:100B1000B9F1100F05F1040500F0A2800F68012261
:100B200002FA09FE17EA0E0AEED0D1F804C0032239
:100B30000CF003077E1E02FA08F4012E6FEA040B84
:100B400012D88468CE6804EA0B0406FA08F6344327
:100B50008460446824EA0E06CCF3001404FA09F415
:100B60002643466004E000BF032F01D103271EE0A7
:100B7000C6688C6806EA0B0604FA08F42643022FBE
:100B8000C66014D16FF00302009E02EA590756F8BE
:100B900007C005F01C040F220B69A2402CEA0202D8
:100BA000A3401A43F251D1F804C00CF003070268C5
:100BB00007FA08F302EA0B021A431CF4403F0260F2
:100BC000A2D0002243F644030292C4F202031A6840
:100BD00043F6004442F480421A601A68C4F20104E9
:100BE00002F480420292029A29F003024FF6084C66
:100BF0002244CFF6FF7C52F80C3005F00C070F268C
:100C0000BE40B343019E06FA07F73B4342F80C305F
:100C1000A2684B6842EA0A0743F60C4CDE0258BF52
:100C200022EA0A07A760C4F2010CDCF800209E0249
:100C300042EA0A0758BF22EA0A07CCF80070626845
:100C40009E0342EA0A0758BF22EA0A076760226841
:100C5000DB0342EA0A0758BF22EA0A07276053E784
:100C600003B0BDE8F08F000044F25040C2F2000033
:100C70000068704740F2000044F25041C2F20000A8
:100C8000C2F2000100780A68104408607047000052
:100C900080B543F60040C4F20200016841F40071DF
:100CA0000160016841F480610160016841F4807174
:100CB0000160032000F0C2F80F2000F005F800F0FA
:100CC0005DF8002080BD000070B586B0002543F6B9
:100CD00040010195C4F202010A68044642F48072A0
:100CE0000A60096801A801F48071019101996946BF
:100CF00000F066F9049E002E18BF012600F080F96E
:100D00004DF68361B040C4F21B31A0FB01014FF0EE
:100D1000FF3000EB914140F2702042F20002C2F23B
:100D20000000C4F2000240F2E733C0E90021C0E94C
:100D300002530561856100F09BFB08B106B070BDF0
:100D400040F27020C2F2000000F0C2FB0028F5D192
:100D50002D2000F035F80F2C0CD82D202146002234
:100D600000F040F840F204010020C2F200010C60E3
:100D700006B070BD012006B070BD000082B000203A
:100D800043F640010190C4F202014A6842F48042F5
:100D90004A604A6802F480420192019A0090086811
:100DA000002240F08050086008680F2100F0805059
:100DB000009000986FF0010002B000F013B800003E
:100DC000002848BF704700F01F01012202FA01F11C
:100DD0001C2202EAD0004EF20012CEF20002815034
:100DE0007047000010B54EF60C5CCEF2000CDCF83B
:100DF0000030C3F3022E8EF00704042C28BF042415
:100E0000BEF103034FF0FF3E0EFA04F438BF002397
:100E1000A14399400EFA03F39A43114300F00F02E5
:100E200000F160430901043A03F564436244002879
:100E300048BF02F10C03197010BD00004EF60C51B2
:100E4000CEF200010A684FF6FF031A4060F30A224F
:100E500042F0806040F0FD7008607047002804BFD9
:100E6000012070472DE9F04143F60808C4F202085A
:100E70000446D8F8F8030D4600F00700884207D270
:100E800088F8F853D8F8F80300F00700A84277D1A3
:100E90002068810717D5410705D5D8F8001041F41F
:100EA000E051C8F80010010705D5D8F8001041F44A
:100EB0006041C8F80010D8F80010A26821F0F001D5
:100EC0001143C8F80010C00740D1D8F8F80300F06B
:100ED0000700A84207D988F8F853D8F8F80300F0BB
:100EE0000700A8424CD12068410707D5D8F8001068
:100EF000E26821F4E0511143C8F80010000708D55A
:100F0000D8F80000216920F4604040EAC100C8F828
:100F1000000000F09DF8D8F8001044F2A632C1F3AA
:100F20000311C0F60002515C40F2080220FA01F100
:100F300040F20400C2F200000068C2F20002116038
:100F4000FFF7C2FE0020BDE8F08100BF6068811E8F
:100F5000022907D258F8081C89015CBF0120BDE8AE
:100F6000F08111E0012807D158F8081C89035CBF03
:100F70000120BDE8F08107E058F8081C890703D478
:100F80000120BDE8F08100BFD8F8001021F0030176
:100F90000843C8F80000FFF767FE064641F28837AD
:100FA000D8F80000616800F00C00B0EB810F8CD025
:100FB000FFF75AFE801BB842F2D90320BDE8F0814A
:100FC0000F22026043F60802C4F20202136803F023
:100FD00003034360136803F0F0038360136803F4B2
:100FE000E053C360D2F800C04FF4E05303EADC03DF
:100FF0000361D2F8F80300F00700086070470000B2
:1010000040F2080043F60801C2F20000C4F20201F7
:101010000068096844F2B632C1F38221C0F60002CA
:10102000515CC8407047000040F2080043F60801D8
:10103000C2F20000C4F202010068096844F2B6324C
:10104000C1F34231C0F60002515CC8407047000055
:1010500010B543F60404C4F20204606800F00C000A
:1010600008280BD0042819BF42F20040C0F2F40057
:1010700041F60030C0F2B70010BD00BF2068216803
:101080002368490241F60031C0F2B70100F03F0287
:10109000C3F388105CBF42F20041C0F2F401A1FB2F
:1010A00000010023FFF7F6F821680222C1F3014195
:1010B00002EB4101B0FBF1F010BD0000002804BFBD
:1010C000012070472DE9F04182B00446007843F6D4
:1010D0000006C007C4F202060CD0B06800F00C0095
:1010E000042840F081803068800303D560680028C0
:1010F00000F06881207880071BD5B06810F00C0FD5
:1011000009D0B06800F00C00082840F087807068B3
:10111000400200F183803068800703D5E068012831
:1011200040F050813068216920F0F80040EAC100A9
:1011300030602078000713D4207840072AD4A569AE
:10114000002D00F03A81B06800F00C00082840F053
:10115000A580012D40F00E81012002B0BDE8F08194
:101160006069002800F082800020C4F2472001213D
:10117000C0F8801EFFF778FD054600BF706F80073E
:10118000DAD4FFF771FD401B0228F7D9032002B023
:10119000BDE8F081306C5FEAC0080AD400200190FD
:1011A000306C40F080503064306C00F08050019022
:1011B000019847F20007C4F200073868C00547D419
:1011C000386840F480703860FFF74EFD054600BF78
:1011D0003868C0053CD4FFF747FD401B0228F7D90B
:1011E000032002B0BDE8F081B06800F00C000828D0
:1011F00003D1706840023FF576AF61683068B1F5A1
:10120000803F07D0B1F5A02F40F09A8040F48020B5
:101210003060306840F4803030609AE0E068002848
:1012200040F20000C4F247205CD001210160FFF7CA
:101230001BFD0546306880073FF574AFFFF714FDCE
:10124000401B0228F6D9032002B0BDE8F08100BFA0
:10125000A168306F012905D0052955D140F004005F
:101260003067306F40F00100306756E00020C4F274
:1012700047200021C0F8801EFFF7F6FC054600BF9E
:10128000706F80077FF558AFFFF7EEFC401B022818
:10129000F6D9032002B0BDE8F08100BF0027C4F2F8
:1012A000472700203866FFF7DFFC022D05460DD1E9
:1012B0003068800140F18A80FFF7D6FC401B02288D
:1012C0004FF00300F4D902B0BDE8F081306880012E
:1012D00073D5FFF7C9FC401B02284FF00300F5D976
:1012E000F1E700BF00210160FFF7BEFC054600BF2B
:1012F000306880077FF51DAFFFF7B6FC401B022862
:101300004FF00300F4D9DEE720F001003067306FC2
:10131000002920F0040030677AD0FFF7A5FC0546CD
:1013200041F28837306F800700F18480FFF79CFC22
:10133000401BB842F6D9032002B0BDE8F08100BFDF
:1013400020F4803030603068002920F48020306044
:101350007AD0FFF789FC0546306880033FF5CAAEB6
:10136000FFF782FC401B6428F6D9032002B0BDE8D9
:10137000F08100BF7068E16900F480028A4221D1E7
:10138000216A00F03F028A421CD147F6C071626AAE
:101390000140B1EB821F15D1A16A4FF6FF73C9035B
:1013A000994300F44032A1F580318A420AD1E16AC2
:1013B00000F07060B0EB016F04D1002002B0BDE816
:1013C000F08100BF012002B0BDE8F08104F11C05EE
:1013D0002FCD084340EA8210D9034FF6FF729143A4
:1013E000A1F5803140EA056008437060012038664D
:1013F000FFF73AFC044600BF30688001DDD4FFF7F8
:1014000033FC001B02284FF00300F5D95BE700BF57
:10141000FFF72AFC054641F2883700BF306F80078E
:1014200008D5FFF721FC401BB8424FF00300F5D967
:1014300049E700BFB8F1000F3FF581AE306C20F0F6
:10144000805030647BE600BFFFF70EFC054600BF0E
:10145000306880037FF54EAEFFF706FC401B642822
:101460004FF00300F4D92EE77047000070470000EA
:10147000002804BF0120704710B5044690F83D00D5
:1014800028B9002084F83C00204600F01FF8022014
:1014900084F83D002068211D00F034FE012084F80E
:1014A000460084F83E0084F83F0084F8400084F849
:1014B000410084F8420084F8430084F8440084F832
:1014C000450084F83D00002010BD0000704700007A
:1014D00090F83D1001291CBF01207047022180F8BF
:1014E0003D10006841F2FF72C168C4F200029042F0
:1014F00041F00101C1600DDC40F2FF71C4F2000156
:10150000884215DCB0F1804F2AD040F20041C4F28D
:10151000000123E040F2FF31C4F20101884213DCF4
:1015200041F60001C4F20001884219D0002113E005
:1015300040F60001C4F20001884211D040F600419B
:10154000C4F200010AE000BF44F20001C4F201014C
:10155000884205D040F20041C4F20101884206D120
:10156000816801F00701062904BF00207047016867
:1015700041F0010101600020704700007047000049
:1015800070B504460068C5680669B10716D515F040
:10159000020113D06FF002010161012121778069FE
:1015A000800703D02046FFF7E9FF05E0204600F062
:1015B0008FF8204600F08EF800202077700719D5AC
:1015C00015F0040016D020686FF0040101610221BB
:1015D0002177806910F4407F04D02046FFF7CEFFCA
:1015E00006E000BF204600F073F8204600F072F8D5
:1015F00000202077300717D515F0080014D0206898
:101600006FF00801016104212177C069800703D0D0
:101610002046FFF7B3FF05E0204600F059F82046CA
:1016200000F058F800202077F00619D515F01000CA
:1016300016D020686FF01001016108212177C06980
:1016400010F4407F04D02046FFF798FF06E000BF6B
:10165000204600F03DF8204600F03CF800202077BE
:10166000F00718BF15F0010002D1300609D412E0CE
:1016700020686FF001010161204600F02DF830066E
:1016800009D515F0800006D020686FF08001016157
:101690002046FFF7E9FE700609D515F0400006D098
:1016A00020686FF040010161204600F01FF8B0068D
:1016B00058BF70BD15F0200008D021686FF02002DF
:1016C00020460A61BDE87040FFF7D0BE70BD000043
:1016D0007047000070470000006842F20001C4F249
:1016E0000001884218BF7047FFF7C4BA7047000076
:1016F0007047000070470000B0B582B001680A680A
:10170000CC684B6902F02F05202D04F0200505D18F
:1017100025B102B0BDE8B04000F09CBD5FEA027C9C
:101720001EBF03F0010E04F4907313EB0E0341D1BE
:10173000036BD50618D5012B16D114F0100313D066
:10174000002201920A6801924A680192019A49694D
:1017500049064BD4818DC28DC38D002B18BF914299
:1017600040F0F48102B0B0BD13062DD514F0800313
:101770002AD090F84120212AF4D18268B2F5805F06
:1017800003D10269002A00F06782026A531C0362D7
:1017900012784A60C28C013A1304C284E2D1C8684C
:1017A00020F08000C860C86840F04000C86002B007
:1017B000B0BD00BFD30718BF14F4807340F0D080D1
:1017C000530700F1D380D8E05206CBD514F0400285
:1017D000C8D0CA6822F04002CA60202180F84110B7
:1017E00002B0BDE8B04000F0F1BA00BFC16B0A68BA
:1017F000526893B2002BB5D0858DAB42B2D2C28570
:10180000C969B1F5807F00F0A080016851E8031F2D
:10181000026821F4807142E80313DBB1016851E8EA
:10182000031F026821F4807142E8031393B1016839
:1018300051E8031F026821F4807142E803134BB1A1
:10184000016851E8031F026821F4807142E8031324
:10185000002BDAD1016851E8051F026821F001016F
:1018600042E80513BBB3016851E8051F026821F087
:10187000010142E8051373B3016851E8051F0268CE
:1018800021F0010142E805132BB3016851E8051F5F
:10189000026821F0010142E80513002BDAD11AE0B9
:1018A000016851E8051F026821F0400142E8051374
:1018B000DBB1016851E8051F026821F0400142E8F0
:1018C000051393B1016851E8051F026821F040013A
:1018D00042E805134BB1016851E8051F026821F089
:1018E000400142E80513002BDAD1202180F8421094
:1018F00000210163016851E8031F026821F0100113
:1019000042E80313DBB1016851E8031F026821F0CC
:10191000100142E8031393B1016851E8031F026804
:1019200021F0100142E803134BB1016851E8031F95
:10193000026821F0100142E80313002BDAD1C16BD9
:1019400004460846FEF7D2FE204602214163818DFF
:10195000C28D891A89B202B0BDE8B040FFF7C8BE97
:10196000436C43F001034364530706D5BEF1000FF7
:1019700003D0436C43F002034364930706D5BEF1E2
:10198000000F03D0436C43F004034364BCF1000F29
:1019900006D55EEA050303D0436C43F008034364B5
:1019A000436C002B3FF4DEAE920605D525B104460C
:1019B00000F050FC216820464969426C01F040016A
:1019C00002F00802891800F0B98000BF016851E8F0
:1019D000031F026821F4907142E80313BBB301684E
:1019E00051E8031F026821F4907142E8031373B3B6
:1019F000016851E8031F026821F4907142E8031363
:101A00002BB3016851E8031F026821F4907142E88A
:101A10000313002BDAD11AE0016851E8051F0268B0
:101A200021F0010142E80513DBB1016851E8051F0F
:101A3000026821F0010142E8051393B1016851E801
:101A4000051F026821F0010142E805134BB101684E
:101A500051E8051F026821F0010142E80513002B3F
:101A6000DAD1016B012924D1016851E8031F026812
:101A700021F0100142E80313DBB1016851E8031FB4
:101A8000026821F0100142E8031393B1016851E8A4
:101A9000031F026821F0100142E803134BB10168F3
:101AA00051E8031F026821F0100142E80313002BE4
:101AB000DAD1202180F842100021016301684969D0
:101AC000490640F1C380016851E8051F026821F012
:101AD000400142E80513DBB1016851E8051F0268C7
:101AE00021F0400142E8051393B1016851E8051F58
:101AF000026821F0400142E805134BB1016851E84A
:101B0000051F026821F0400142E80513002BDAD1DD
:101B1000C16B002900F09A8042F24922C0F600020F
:101B2000044608460A65FEF729FE00283FF41AAE6F
:101B3000E06B016D02B0BDE8B04008470446FFF716
:101B4000D9FD0020606402B0B0BD00BF891A00BF9B
:101B5000026852E8032F036822F4907243E80325D9
:101B6000BDB3026852E8032F036822F4907243E881
:101B7000032575B3026852E8032F036822F49072BC
:101B800043E803252DB3026852E8032F036822F4CB
:101B9000907243E80325002DDAD11AE0026852E87A
:101BA000052F036822F0010243E80525DDB1026834
:101BB00052E8052F036822F0010243E8052595B19C
:101BC000026852E8052F036822F0010243E8052568
:101BD0004DB1026852E8052F036822F0010243E884
:101BE0000525002DDAD1202280F842200022026350
:101BF000026852E8032F036822F0100243E803252D
:101C0000DDB1026852E8032F036822F0100243E8B6
:101C1000032595B1026852E8032F036822F01002F1
:101C200043E803254DB1026852E8032F036822F010
:101C3000100243E80325002DDAD1022289B2426363
:101C400002B0BDE8B040FFF753BD00BF02B0BDE831
:101C5000B040FFF74FBD00BF026A32F8023B6FF39E
:101C60005F234B60026295E5002804BF01207047A6
:101C700010B5044690F8410028B9002084F84000CF
:101C8000204600F021F8242084F841002068C16833
:101C900021F40051C160204600F05CFB206801691E
:101CA00021F490410161416921F02A014161C1683B
:101CB00041F40051C16000202021606484F841108B
:101CC00084F84210606310BD2DE9F04387B00446EC
:101CD00041F200002168C4F201000026814206960C
:101CE000CDE904660396029602D007B0BDE8F08302
:101CF00043F630010196C4F202014A6946F24048B7
:101D000042F010024A614A6900F5744002F0100284
:101D10000192019A01960A68C4F2020842F0020296
:101D20000A60096801F0020101910199C021029144
:101D30000221CDE90316032105910721069102A98D
:101D4000FEF7C2FE40F2B015C2F200054FF0006788
:101D50004FF480692846C5E90087C5E90266C5E9F0
:101D60000496C5E90666C5E90866FEF7FBFD00288E
:101D700018BFFEF703FCE563AC6340F2102508F1E1
:101D80007800C2F200054021C5E9000705F108000E
:101D9000002280E806022846C5E90522C5E9072297
:101DA0006A62FEF7DFFD002818BFFEF7E7FB25207B
:101DB00005210022A563AC63FFF714F82520FEF788
:101DC000FFFF07B0BDE8F0837047000070470000D8
:101DD000FEE7000080B540F2881046F20041C2F2F2
:101DE0000000C4F200010023102280E80E00C0E9C8
:101DF0000333C0E905338383FEF7C4FB002808BF23
:101E000080BDBDE88040FEF7B9BB000080B582B060
:101E10000020019043F63000C4F202000168002265
:101E200041F4800101600068052100F48000019008
:101E300001983A20FEF7D6FF3A20FEF7C1FF462070
:101E400005210022FEF7CEFF462002B0BDE880400B
:101E5000FEF7B6BF10B542F2110044F23442C0F6AC
:101E60000000C0F60002002100F046FB40F27004C2
:101E7000C2F20004206042F2050044F20842C0F6BB
:101E80000000C0F60002002100F036FB606040F266
:101E9000795044F2E432C0F60000C0F6000200219E
:101EA00000F02AFBA06040F2515044F2C032C0F66C
:101EB0000000C0F60002002100F01EFBE06010BD33
:101EC00081B0002043F630010090C4F202010A689C
:101ED00042F001020A600A6802F001020092009AD0
:101EE00000900A6842F002020A600A6802F00202E8
:101EF0000092009A00900A6842F008020A600A689C
:101F000002F008020092009A0090086840F08000F9
:101F10000860086800F080000090009801B07047E9
:101F200080B540F2B82041F20001C2F20000C4F2D4
:101F3000010100234FF00C0C4FF4E13280E80E0059
:101F4000C0E90333C0E905C3C361FFF78DFE002874
:101F500008BF80BDBDE88040FEF710BBFEE7000073
:101F6000FEE700000000000000000000000000008C
:101F7000EFF30980BFF36F8F154B1A681EF0100F37
:101F800008BF20ED108A20E9F04F10602DE909000C
:101F90004FF0500080F31188BFF34F8FBFF36F8F66
:101FA00001F01EFB4FF0000080F31188BDE809002E
:101FB00019680868B0E8F04F1EF0100F08BFB0ECC9
:101FC000108A80F30988BFF36F8F704700BF00BF8E
:101FD0008000002000000000000000000000000061
:101FE000074B19680868B0E8F04F80F30988BFF321
:101FF0006F8F4FF0000080F31188704700BF00BF63
:102000008000002080B500BF012000F033FAFBE71C
:10201000012000F02FFAFBE780B54EF21000CEF25F
:102020000000006801F0C6FF012808BF80BDBDE8C0
:10203000804001F0FFBB000070B592B006AC2046B6
:102040003021FEF7ECF9002543F640000595CDE977
:102050000355CDE901550095C4F20200016802263E
:1020600041F080510160006800F0805000900098BD
:1020700047F200000095C4F20000016841F480417D
:102080000160006800F480400090009801200690F4
:102090004FF4803007904FF480000D9006200E9092
:1020A000A820CDE90F060420119020460C96FFF7DA
:1020B00005F818B172B600BFFEE700BF0F20CDE9EA
:1020C00001064FF4A05004904FF48050059001A8F1
:1020D00005210395FEF7C2FE10B172B6FEE700BF00
:1020E00012B070BD4EF68850CEF20000016841F487
:1020F000700101607047000040F27020C2F20000E1
:10210000FFF73EBA10B540F6FF3E0368C4F2000E7A
:1021100040F2004C7045C4F2010C25DCB0F1804F58
:102120002FD040F20042C4F20002904229D040F683
:102130000002C4F20002904223D041F6FF72C4F2C2
:102140000002904227DC70453ADCB0F1804F5BD052
:1021500040F20042C4F20002904255D040F6000224
:10216000C4F200024EE000BF40F60042C4F200029A
:10217000904206D0604504D00022C4F20102904291
:10218000DBD14A6823F07003134341F6FF72C4F2B7
:1021900000029042D7DD43F6FF72C4F20102904282
:1021A00020DC42F20002C4F2000290422CD0002255
:1021B000C4F20102904227D0604525D028E000BF3C
:1021C00040F60042C4F2000290421DD041F60002E7
:1021D000C4F20002904217D041F60042C4F200025D
:1021E00010E000BF44F20002C4F2010290420BD0A2
:1021F00044F60002C4F20102904205D044F20042CB
:10220000C4F20102904203D1CA6823F4407313431D
:1022100023F080024B69D1F800E08C681A43026019
:10222000C46240F48062C0F828E0624504BF0969D6
:102230000163012141610169C90708BF10BD01693E
:1022400021F00101016110BD806B0021C185C184B5
:10225000FFF750BA81B090F84210222921D183684B
:102260000246B3F5805F09D152F8281F52F8183C96
:10227000002B63D003685B680AE000BF52F8281F98
:1022800013B90369002BF5D003685B6803F07F0383
:102290000B70116801311160C18D01390A04C185CB
:1022A00002D001B0704700BF0168CA6822F0200266
:1022B000CA60CA6822F48072CA604A6922F00102C8
:1022C0004A61202180F8421000214163026B012AFB
:1022D0003CD10163016851E8031F026821F010013D
:1022E00042E80313DBB1016851E8031F026821F0E3
:1022F000100142E8031393B1016851E8031F02681B
:1023000021F0100142E803134BB1016851E8031FAB
:10231000026821F0100142E80313002BDAD10168B2
:102320000A68D20606D5002200920A68009249681F
:1023300000910099818D01B0FFF7DAB90268526807
:102340006FF35F2221F8022B8162A5E701B0FFF74E
:102350003BBD0000B0B50446006804F108030ECB95
:102360000569194325F440552A4302616269E3690E
:102370001143C268194349F20C639A431143C16087
:102380004169A26921F4407141F20043114340F4D4
:102390008062C4F201039A42416103D1FEF744FE18
:1023A00002E000BFFEF72CFEE1694FF69C75636802
:1023B0001922C0F6FF75B1F5004FA0FB02011FD135
:1023C0005A00DB0FFDF766FF48F21F51C5F2EB1113
:1023D000A0FB01235A0905F1805302FB03003223BD
:1023E00003EBC000A0FB01014FF4F87000EA1110EC
:1023F00000EB0210C1F34211084421688860B0BDAF
:102400009A009B0FFDF746FF48F21F51C5F2EB11F2
:10241000A0FB01235A0902FB0500322303EB001045
:10242000A0FB0101F02000EA511000EB0210C1F303
:102430004311084421688860B0BD000040F2B82014
:10244000C2F20000FFF758B9FEE70000FEF720FCDB
:10245000FFF7F2FDFFF734FDFFF7D8FCFFF7BAFCFA
:10246000FFF75EFD00F016F8FFF7F4FC00F026F829
:10247000FEE70000EFF3058100291CBF6FF00500A7
:102480007047002804BF0020704780B500F05EFF51
:10249000002080BDEFF3058000281CBF6FF0050011
:1024A000704740F28410C2F200000168002911BF99
:1024B0004FF0FF300121016000207047EFF30580ED
:1024C00000281CBF6FF00500704740F28410C2F274
:1024D0000000016801291CBF4FF0FF30704780B534
:1024E0004EF61F51CEF2000100220A700221016057
:1024F00000F0F6FF002080BDF0B585B08C460023CB
:102500000493EFF30581B0B3A9BB2AB39469002CFF
:1025100008BF1824382C2ED81179C9072BD1566939
:10252000D2E902574FEA960E1168002E734608BF93
:1025300080231DB35C2F25D312690023002A18BF06
:10254000002E18D0CDE9004272466346029501F094
:10255000F5FC05B0F0BD00BF80231824002104AFB6
:102560009AB26346CDE9004701F0B8FC0023049914
:10257000012808BF0B46184605B0F0BD17B912690F
:10258000002AECD00023184605B0F0BD2DE9F0413B
:10259000044600F0C5FD40F28006C2F20006F06875
:1025A00040F2F0350130F0603068C2F2000558B1F9
:1025B0003069002840F007813068E16AC06A8842CB
:1025C00098BF3460FFE000BF3460F068012840F03D
:1025D000FA80284600F04AFD05F1140000F046FD9F
:1025E00005F1280000F042FD05F13C0000F03EFD41
:1025F00005F1500000F03AFD05F1640000F036FDF1
:1026000005F1780000F032FD05F18C0000F02EFDA0
:1026100005F1A00000F02AFD05F1B40000F026FD50
:1026200005F1C80000F022FD05F1DC0000F01EFD00
:1026300005F1F00000F01AFD05F5827000F016FDBE
:1026400005F58C7000F012FD05F5967000F00EFD9A
:1026500005F5A07000F00AFD05F5AA7000F006FD72
:1026600005F5B47000F002FD05F5BE7000F0FEFC4B
:1026700005F5C87000F0FAFC05F5D27000F0F6FC24
:1026800005F5DC7000F0F2FC05F5E67000F0EEFCFC
:1026900005F5F07000F0EAFC05F5FA7000F0E6FCD4
:1026A00005F5027000F0E2FC05F5077000F0DEFCB5
:1026B00005F50C7000F0DAFC05F5117000F0D6FCA1
:1026C00005F5167000F0D2FC05F51B7000F0CEFC8D
:1026D00005F5207000F0CAFC05F5257000F0C6FC79
:1026E00005F52A7000F0C2FC05F52F7000F0BEFC65
:1026F00005F5347000F0BAFC05F5397000F0B6FC51
:1027000005F53E7000F0B2FC05F5437000F0AEFC3C
:1027100005F5487000F0AAFC05F54D7000F0A6FC28
:1027200005F5527000F0A2FC05F5577000F09EFC14
:1027300005F55C7000F09AFC05F5617000F096FC00
:1027400005F5667000F092FC05F56B7000F08EFCEC
:1027500005F5707000F08AFC05F5757000F086FCD8
:1027600005F57A7000F082FC05F57F7000F07EFCC4
:1027700005F5826000F07AFC05F2244000F076FC5A
:1027800005F5876000F072FC05F24C4000F06EFC2D
:1027900040F25C18C2F20008404600F067FC08F105
:1027A0001407384600F062FC06F1640000F05EFC9D
:1027B00006F13C0000F05AFC06F1500000F056FC17
:1027C000C6F81C8037627068716A421CE06A7260E9
:1027D0008842626488BF706200EB800005EB800075
:1027E000211D00F085FC00F0BFFC306988B1306825
:1027F000E16AC06A884228BFBDE8F0814EF6045005
:10280000CEF200004FF080510160BFF34F8FBFF355
:102810006F8FBDE8F081000040F2800540F2F03695
:102820004EF60458C2F20005C2F20006CEF20008CD
:102830004FF0805703E000BF204600F0ADFCA868D1
:10284000D0B100F06DFCA86CC468201D00F0E0FB66
:10285000E8680138E860A8680138A86000F084FCE6
:1028600094F859000228EAD00128E5D070B9206B0D
:1028700000F092FCE0E700BF30680228DFD3C8F820
:102880000070BFF34F8FBFF36F8FD8E74FF050004A
:1028900080F31188BFF36F8FBFF34F8FFEE7000007
:1028A0002DE9F0470A9C8246206B16460F46DDE96B
:1028B00008599100A5229846FDF7A9FD206B002F2D
:1028C00000EB8600A0F1040020F0070644D0387821
:1028D00084F83400D8B3787884F83500B8B3B87881
:1028E00084F8360098B3F87884F8370078B33879EC
:1028F00084F8380058B3787984F8390038B3B87957
:1029000084F83A0018B3F87984F83B00F8B1387AC3
:1029100084F83C00D8B1787A84F83D00B8B1B87A30
:1029200084F83E0098B1F87A84F83F0078B1387B9B
:1029300084F8400058B1787B84F8410038B1B87B06
:1029400084F8420000281CBFF87B84F84300002074
:1029500084F8430003E000BF002084F8340000271F
:10296000201D372D28BF3725E562C4E9135700F035
:1029700089FB04F1180000F085FBC5F13800A06167
:1029800030465146424624616462676584F8587057
:1029900000F02CFBB9F1000F206018BFC9F800400F
:1029A000BDE8F08708480068006880F308884FF0A9
:1029B000000080F3148862B661B6BFF34F8FBFF397
:1029C0006F8F00DF00BF000008ED00E081B0002045
:1029D000009040F20C00C2F2000000684FF050017D
:1029E00081F31188BFF36F8FBFF34F8F013007D092
:1029F000FEE700BF009830B9009820B9009810B9E0
:102A000000980028F6D001B07047000088B040F26E
:102A1000F80AC2F2000A0DF11009EB46DAF80800D4
:102A200005681DB1C068046801E000BF002400F023
:102A3000CFFD01F0CFFADAF810100646884220D315
:102A4000002DCAF8106051D0A6424FD301F0CCFB44
:102A5000DAF80800C068C7683D1D284600F0D8FABB
:102A600097F82800410745D400F0FA0087F82800BD
:102A700082E000BF7860DAF8080029463F6100F084
:102A800005FBDAF80800016831B3C068C76804685C
:102A90003D1D284600F0BCFA396A3846884797F849
:102AA00028004007EDD5B8692044A042E2D8DAF802
:102AB0000000002800F04081002004A991C101F02D
:102AC00079FADAF8000049460022002300F038FFC6
:102AD0000028D6D130E100BFDAF80C10CAF8106037
:102AE000CAE9021001F080FB4FE000BF65B100228F
:102AF00010E000BFB8693F610119B14279601DD98A
:102B00000AF108001FE000BFDAF80C000068B0FA14
:102B100080F04209DAF80000A11B00F0EDFB01F0A3
:102B200063FB90BB4EF60450CEF200004FF0805194
:102B30000160BFF34F8FBFF36F8F26E0311B8142DF
:102B400006D20AF10C000068294600F09FFA13E053
:102B5000DAF80000002800F00D81002004A991C1DE
:102B600001F028FADAF8000049460022002300F0BC
:102B7000E7FE002800F0FE80396A3846884704E006
:102B80000AF10C02106800F081FADAF800005946E8
:102B9000002201F035F800283FF440AF0098B0F172
:102BA000FF3F06DCDDE901200399904700980028EB
:102BB000EBD4029E706910B1301D00F029FA01F0CB
:102BC00009FADAF81010074688420CD30098CAF8C0
:102BD000107009283DD9D8E76860DAF80800214666
:102BE0002D6100F053FADAF80800016841B3C068BB
:102BF000C568D0F800802C1D204600F009FA296A2B
:102C00002846884795F828004007ECD5A869404435
:102C10004045E1D8DAF80000002800F08380002069
:102C2000CDE90408069501F0C5F9DAF80000494637
:102C30000022002300F084FE0028D4D172E000BFFF
:102C4000DAF80C10CAE902100098CAF810700928C6
:102C50009BD8DFE800F005050557415F05055741A2
:102C600096F82800B26940F00101019886F8281012
:102C70001318314641F8043FBB42366108D98742F8
:102C80000AF10802BFF47EAF834205D27AE700BFA3
:102C9000381A9042FFF474AF316A3046884796F88C
:102CA000280040077FF571AFDAF8000000284DD00A
:102CB0000198B169069608440021CDE9041001F09D
:102CC00079F9DAF8000049460022002300F038FEC6
:102CD00000287FF45AAF39E096F8280040F001014F
:102CE000019886F828100028B06139D03844314660
:102CF0000AF10C0241F8040F3661B84288BF0AF1AC
:102D000008023FE796F8280000F0FE0086F8280049
:102D10003BE700BF96F828008107F5D4304600F065
:102D20003BFA32E74FF0500080F31188BFF36F8F0A
:102D3000BFF34F8FFEE700BF4FF0500080F31188C4
:102D4000BFF36F8FBFF34F8FFEE700BF4FF0500010
:102D500080F31188BFF36F8FBFF34F8FFEE700BF83
:102D60004FF0500080F31188BFF36F8FBFF34F8F88
:102D7000FEE700BF4FF0500080F31188BFF36F8F64
:102D8000BFF34F8FFEE70000F0B581B0044600F0BE
:102D9000C7F994F94560012E0FDB04F1240500BF4B
:102DA000286850B1284601F0E5F9002818BF00F066
:102DB00017FBF0B2013E0128F2D8FF2684F84560E7
:102DC00000F0D2F900F0ACF994F94470012F0EDB59
:102DD00004F11005286850B1284601F0CBF900280D
:102DE00018BF00F0FDFAF8B2013F0128F2D884F8CC
:102DF000446001B0BDE8F04000F0B6B970B50446DB
:102E000000F0E6FB40F2341CC2F2000CDCF80420B7
:102E100052B19CF80000002818BF4FF000404FF05E
:102E2000000544BB81E000BF40F65000C2F2000044
:102E3000420700F5705200F1070122F0070218BFA7
:102E400021F007000021A2F10803CCE90601CCF82B
:102E5000043042E90211DCF80420191AC0E900210B
:102E600001208CF800004FF00040CCE90211002C4A
:102E70004FF0000559D0204057D124F0070000F151
:102E80001003600708BF04F10803DCF80800591EAE
:102E900081424AD2604650F818EFDEF804509D4255
:102EA0002BD2DEF80010B9B174464D689D4217D29E
:102EB0000E68AEB175689D4216D23068A0B1456803
:102EC0009D4215D204689CB165689D4214D2216868
:102ED000A6460029E9D110E00CF118000DE000BF72
:102EE0008E46204609E000BFB646084605E000BF12
:102EF0008646304601E000BFA646964514D00268DB
:102F0000DEF80040E91A112904604DD30EEB0305E9
:102F1000680719D04FF0500080F31188BFF36F8F0E
:102F2000BFF34F8FFEE700BF002501F05DF9680792
:102F30005AD04FF0500080F31188BFF36F8FBFF36A
:102F40004F8F00BFFEE700BF0CF118006960CEF89C
:102F5000043000BF0168A9420AD20868A8420BD217
:102F60000168A94204D208680B46A842F2D304E0E3
:102F70000346084601E000BF0B465C6869681E19FD
:102F8000AE4202D121441D4659606C18844207D1DB
:102F9000DCF80440A04203D0D0E900042144696079
:102FA000AB42286018BF1D60DEF80400DCE90213A4
:102FB00002F10805091A9942CCF8081038BFCCF87C
:102FC0000C109CF8001000294FF0000118BF40F0D1
:102FD0000040CEE90010DCF810000130CCF8100001
:102FE00001F002F96807A4D1284670BD034642F6F5
:102FF000CD1021F00101C0F600004FF0807C03E904
:1030000003106FF00201A3F1440043E90912704775
:103010000169D0E90132D1F804C09A608445536057
:1030200008BF4A6000220261086801380860086829
:103030007047000044F25463C2F20003036044F29C
:103040005440C2F200000860802010607047000009
:1030500044F6B023C2F20003036044F2B060C2F24F
:10306000000008604FF48070106070474FF0FF312F
:10307000024642F8081F00214260C0E903220160B5
:1030800070470000002101617047000010B5D1F8C1
:1030900000C01CF1010213D000F10804626813683B
:1030A000634511D853681C68644511D85A68146880
:1030B00064450FD854682368A6466345EED90BE0F3
:1030C0000269D2F804E007E09646224604E000BF19
:1030D0009E4601E096461A46C1F804E0CEF8081074
:1030E0008A605160086101680131016010BD000013
:1030F000D0F800C0436808619A68C1E901325160A4
:1031000099600CF10101016070470000DFF80C00CC
:10311000016841F4700101607047000088ED00E033
:103120004FF0500080F31188BFF36F8FBFF34F8FC4
:1031300040F20C00C2F2000001684A1C026009B1B2
:10314000704700BF4EF60450CEF200000068000643
:1031500008BF70474FF0500080F31188BFF36F8FA6
:10316000BFF34F8FFEE7000040F20C00C2F20000F8
:10317000016839B10139016018BF7047002080F340
:10318000118870474FF0500080F31188BFF36F8FA4
:10319000BFF34F8FFEE7000070B5002808BF70BD79
:1031A00040F23414C2F20004217850F8042C0029B3
:1031B00018BF4FF0004111420ED0A0F108052B6856
:1031C000A3B14FF0500080F31188BFF36F8FBFF3AE
:1031D0004F8F00BFFEE700BF4FF0500080F3118813
:1031E000BFF36F8FBFF34F8FFEE700BF22EA0101ED
:1031F00040F8041C064600F0EBF956F8041CA068E1
:103200000844A06004F118000368AB420AD21868B1
:10321000A84225D20368AB4204D218681A46A842D5
:10322000F2D301E0024618465368D618AE4202D1E6
:103230001944154651606B18834206D16368984261
:1032400003D0D0E9000319446960AA42286018BF7E
:103250001560606901306061BDE8704000F0C4BF76
:103260001A465368D618AE42E5D1E1E74EF2100097
:10327000CEF2000000210160816040F20801C2F23C
:103280000001096844F6D352C1F26202A1FB0212A6
:103290004FF0FF3101EB921141600721016070474F
:1032A00044F60C3CC2F2000CDCF8003003B3634679
:1032B00053F8082FEAB1634653F8102FCAB163469A
:1032C00053F8182FAAB1634653F8202F8AB16346EA
:1032D00053F8282F6AB1634653F8302F4AB15CF88F
:1032E000382F002A634608BFC3E90010704700BFAB
:1032F0006346C3E90010704770B515460E46044694
:10330000FFF70EFF94F84400FF2804BF002084F864
:10331000440094F84500FF2804BF002084F84500CD
:10332000FFF722FFA06B28B12046BDE87040FFF7F1
:103330002BBD00BF04F1240031462A4600F092F86C
:103340002046BDE87040FFF71FBD000070B588B390
:1033500040F28004C2F20004616949B14FF05000AC
:1033600080F31188BFF36F8FBFF34F8FFEE700BF6D
:103370006169064601316161A56921680431084629
:10338000FFF746FE2068AD19456005D3206A216825
:103390000431FFF77BFE08E0E06921680431FFF7A4
:1033A00075FEE06A854238BFE56200F01DFF002827
:1033B00018BF70BD4EF60450CEF200004FF08051A1
:1033C0000160BFF34F8FBFF36F8F70BD40F280017C
:1033D000C2F200018A6B0260896941607047000097
:1033E00040F28000C2F2000001210163704700003A
:1033F00070B5D8B140F28004C2F200040D462168D5
:103400001831FFF743FEA66920680430FFF700FE7D
:10341000681C15D02068AD19456019D3206A216851
:103420000431BDE87040FFF731BE00BF4FF05000DF
:1034300080F31188BFF36F8FBFF34F8FFEE700BF9C
:1034400054F8500B011D2046BDE87040FFF750BEF8
:10345000E06921680431FFF719FEE06A854238BF50
:10346000E56270BDF0B581B0C0B140F28004C2F237
:1034700000040D46216816461831FFF739FEA7698A
:1034800020680430FFF7C4FD96B154F8500B011DBD
:10349000204601B0BDE8F040FFF72ABE4FF05000D3
:1034A00080F31188BFF36F8FBFF34F8FFEE700BF2C
:1034B0002068ED19456007D3206A2168043101B006
:1034C000BDE8F040FFF7E2BDE06921680431FFF795
:1034D000DDFDE06A854238BFE56201B0F0BD000065
:1034E00010B588B00020CDE9050006A805A904AAFA
:1034F000FFF7A0FD059800283ED0069C002C45D083
:103500005C21049A079107995C2949D107992063A6
:10351000022084F8590007A80021CDE9001042F6E6
:103520001900C0F6000028A100230294FFF7B8F9A3
:103530002046FFF72BF8079840F28004C2F20004FF
:10354000A062B0B100F0C8FE411C33D0012810D1F8
:103550004FF0500080F31188BFF36F8FBFF34F8F90
:103560004FF0FF30E062012020610020A06100F0F8
:103570009DF808B010BD00BF4FF0500080F31188D7
:10358000BFF36F8FBFF34F8FFEE700BF4FF05000C8
:1035900080F31188BFF36F8FBFF34F8FFEE700BF3B
:1035A0004FF0500080F31188BFF36F8FBFF34F8F40
:1035B000FEE700BF4FF0500080F31188BFF36F8F1C
:1035C000BFF34F8FFEE700BF49444C4500000000A9
:1035D00040F28000C2F20000416901314161704750
:1035E00080B540F2800EC2F2000EDEF8141019B160
:1035F0000121CEF8301080BD0021CEF83010DEF869
:10360000241040F2F03C01EB8102C2F2000C5CF8A5
:103610002230002B0CEB82030CD05868426803F177
:10362000080082425A6023D0D068CEF80000CEF85D
:10363000241080BD283B19B35A6901EB8100002A90
:103640000CEB800226D101291AD0186830BB022960
:1036500016D053F8140C28BB032911D053F8280CAA
:1036600004390028A3F15003E5D02833D5E700BF83
:1036700052685A60D068CEF80000CEF8241080BDA1
:103680004FF0500080F31188BFF36F8FBFF34F8F5F
:10369000FEE700BFA2F114030139BEE7A2F128033F
:1036A0000239BAE7A2F13C030339B6E7B0B584B0FA
:1036B0004EF2004CCEF2000C4CF27021C4F20F110D
:1036C000DCF800294B1C9A420AD14FF0500080F3DD
:1036D0001188BFF36F8FBFF34F8F00BFFEE700BFAE
:1036E000DCF800298A4209D14FF0500080F311889C
:1036F000BFF36F8FBFF34F8FFEE700BF9CF8001042
:103700000291FF218CF800109CF800108DF8071032
:103710009DF8071001F0500240F25411C2F200016E
:103720000A7007224A609DF90720B2F1FF3F6BDC67
:10373000032200BFD31C4B609DF8070040008DF8AA
:1037400007009DF90700B0F1FF3F24DC931C4B609C
:103750009DF8070040008DF807009DF90700B0F1C3
:10376000FF3F18DC531C4B609DF8070040008DF8AC
:1037700007009DF90700B0F1FF3F0CDC4A609DF89F
:103780000700043A40008DF807009DF90700B0F1EA
:10379000FF3FCFDD131D032B36D14FF4407048603F
:1037A00002988CF80000DCF8200940F47000CCF896
:1037B0002009DCF8200940F07040CCF82009FFF720
:1037C00055FD40F20C04C2F2000400252560FFF70D
:1037D0009DFC4EF63470CEF20000016841F040418D
:1037E0000160FFF7DFF8FFF7FBFE039520684FF05D
:1037F000500181F31188BFF36F8FBFF34F8F0130FA
:1038000012D000BFFEE700BF4FF0500080F31188D8
:10381000BFF36F8FBFF34F8FFEE700BF039830B940
:10382000039820B9039810B903980028F6D0002017
:1038300004B0B0BD80B54FF0500080F31188BFF3E5
:103840006F8FBFF34F8F00F0CBFB30B14EF60450BB
:10385000CEF200004FF080510160002080F311880B
:1038600080BD000070B582B060B1ABB1F1B9EAB112
:103870004FF0500080F31188BFF36F8FBFF34F8F6D
:10388000FEE700BF4FF0500080F31188BFF36F8F49
:10389000BFF34F8FFEE700BF4FF0500080F3118859
:1038A000BFF36F8FBFF34F8FFEE700BF51B14AB92F
:1038B0004FF0500080F31188BFF36F8FBFF34F8F2D
:1038C000FEE700BF50250195019D502D2ED1019C92
:1038D000069E012483F84640002908BF1A461A6054
:1038E000C3E90F011C46FFF71BFC2068D4E90F1247
:1038F000002502FB0103013901FB0201A563C4E9B4
:103900000103FF20E16084F8440084F8450004F1DD
:103910001000FFF7ABFB04F12400FFF7A7FBFFF754
:1039200023FC204684F84C6002B070BD4FF050007C
:1039300080F31188BFF36F8FBFF34F8FFEE7000056
:103940002DE9F04F83B00292C0B11D460446F9B193
:10395000022D02D1E06B01285CD116460F4600F023
:1039600029FB18BB16B34FF0500080F31188BFF34A
:103970006F8FBFF34F8F00BFFEE700BF4FF05000C7
:1039800080F31188BFF36F8FBFF34F8FFEE700BF47
:10399000206C0028DCD04FF0500080F31188BFF37A
:1039A0006F8FBFF34F8F00BFFEE700BFFFF7B8FB7D
:1039B000A06B022D65D0E16B884262D3029800288B
:1039C00000F018816846FFF701FDFFF7CDFBFFF718
:1039D000FFFDFFF7A5FB94F84400FF2804BF00207B
:1039E00084F8440094F84500FF2804BF002084F8C0
:1039F0004500FFF7B9FB684602A900F021FA98B12B
:103A00002046FFF7C1F900F0EFFB002003B0BDE84E
:103A1000F08F00BF4FF0500080F31188BFF36F8F1D
:103A2000BFF34F8FFEE700BF04F11008FFF778FBEC
:103A3000D4F83890E66BFFF797FBB14516D10299A1
:103A40004046FFF7D5FC2046FFF79EF900F0CCFB7F
:103A500088B94EF60450CEF200004FF0805101605C
:103A6000BFF34F8FBFF36F8F05E000BF2046FFF716
:103A70008BF900F0B9FBFFF753FBA06BE16B8842B9
:103A800066D2A66B226CDAB139462DB3E068FCF73A
:103A900079FCE168206C2268091A9142E16003D246
:103AA000A16840420844E060A81EB0FA80F04009D6
:103AB0003146002E18BF01210840361A18E000BF19
:103AC0002068A8B9A06800F00DFB0021B0FA80F0D2
:103AD000A16040090DE000BF6068FCF753FCD4E929
:103AE0000101226C10448842606001D3206860604C
:103AF0000120711CA16354F8241FA9B1204600F0D5
:103B000039FB50B14EF60450CEF200004FF0805118
:103B10000160BFF34F8FBFF36F8FFFF725FB0120CD
:103B200003B0BDE8F08F00BF0028F6D14EF6045078
:103B3000CEF200004FF080510160BFF34F8FBFF312
:103B40006F8FFFF711FB012003B0BDE8F08F00BFBE
:103B5000E94602AE0CE000BF2046FFF715F900F081
:103B600043FBFFF7DDFAA06BE16B8842FFF489AFFE
:103B7000029800283ED0FFF7F7FAFFF729FDFFF77C
:103B8000CFFA94F84400FF2804BF002084F84400D2
:103B900094F84500FF2804BF002084F84500FFF793
:103BA000E3FA4846314600F04BF900287FF428AF8D
:103BB000FFF7B6FAD4F838A0D4F83CB0FFF7D4FA3F
:103BC000DA45C9D102994046FFF712FC2046FFF7BB
:103BD000DBF800F009FB0028C3D14EF60450CEF20A
:103BE00000004FF080510160BFF34F8FBFF36F8F24
:103BF000B7E700BFFFF7B8FA002003B0BDE8F08FC9
:103C00002DE9F04F83B0029290B115460446002989
:103C100048D00E4600F0CEF9A0B99DB14FF050004B
:103C200080F31188BFF36F8FBFF34F8FFEE700BFA4
:103C30004FF0500080F31188BFF36F8FBFF34F8FA9
:103C4000FEE700BFFFF76CFAD4F838A0BAF1000F16
:103C500036D0226C52B1D4E9023130461144E160D1
:103C6000994224BF2168E160FCF78CFBAAF10100B6
:103C7000A06354F8100F70B1204600F07BFA50B1E9
:103C80004EF60450CEF200004FF080510160BFF3B9
:103C90004F8FBFF36F8F0124FFF766FA204603B002
:103CA000BDE8F08F206C0028B3D04FF0500080F3B7
:103CB0001188BFF36F8FBFF34F8F00BFFEE700BFC8
:103CC0000298002800F0B4806846FFF77FFBFFF7FA
:103CD0004BFAFFF77DFCFFF723FA94F8440004F158
:103CE0002408FF2804BF002084F8440094F845000D
:103CF000FF2804BF002084F84500FFF735FA684626
:103D000002A900F09DF878B12046FFF73DF800F0D9
:103D10006BFAFFF705FAA56BFFF726FA2DBB002417
:103D2000204603B0BDE8F08FFFF7FAF9A56BFFF767
:103D30001BFA2DB12046FFF727F800F055FA14E0E2
:103D400002994046FFF754FB2046FFF71DF800F0AC
:103D50004BFA50B94EF60450CEF200004FF08051AD
:103D60000160BFF34F8FBFF36F8FFFF7D9F9D4F81E
:103D700038A0BAF1000F7FF46CAF4FF00009EB46AA
:103D800002AF13E02046FEF7FFFF00F02DFAFFF729
:103D9000C7F9A56BFFF7E8F9002DC0D0FFF7C0F910
:103DA000D4F838A0BAF1000F7FF453AF029800287E
:103DB0003ED0FFF7D9F9FFF70BFCFFF7B1F994F804
:103DC0004400FF2808BF84F8449094F84500FF2879
:103DD00008BF84F84590FFF7C7F95846394600F008
:103DE0002FF80028CED1FFF79BF9A56BFFF7BCF9A0
:103DF00035B12046FEF7C8FF00F0F6F9CEE700BF68
:103E000002994046FFF7F4FA2046FEF7BDFF00F0A6
:103E1000EBF90028C2D14EF60450CEF200004FF06C
:103E200080510160BFF34F8FBFF36F8FB6E700BFC4
:103E30000024FFF799F9204603B0BDE8F08F000099
:103E4000B0B548B30C4689B30546FFF769F940F2AF
:103E5000800CC2F2000CDCF818302268501C2FD005
:103E6000AE46D5E90050DCF83810A94201D08342B3
:103E70002ED2181A824229D9101A2060DCF8380094
:103E80000024CEF80000DCF81800CEF80400FFF79C
:103E90006BF92046B0BD00BF4FF0500080F3118891
:103EA000BFF36F8FBFF34F8FFEE700BF4FF050009F
:103EB00080F31188BFF36F8FBFF34F8FFEE700BF12
:103EC0000024FFF751F92046B0BD00BF002020605C
:103ED0000124FFF749F92046B0BD00002DE9F0416B
:103EE00084B007469000984615460E46FEF786FFBA
:103EF000F8B104465C20FEF781FFB8B1DDE90A2184
:103F00000023046380F85930CDE900210446384687
:103F100031462A4643460294FEF7C2FC2046FEF78D
:103F200035FB012004B0BDE8F08100BF2046FFF75B
:103F300033F94FF0FF3004B0BDE8F08170B586B0C2
:103F40000B9CCCB10C9E0EB35C250495049D5C2D9E
:103F500026D1049DDDF828C0022586F8595005AD0C
:103F60003463CDE900C50296FEF79AFC3046FEF7B1
:103F70000DFB059806B070BD4FF0500080F311881E
:103F8000BFF36F8FBFF34F8FFEE700BF4FF05000BE
:103F900080F31188BFF36F8FBFF34F8FFEE700BF31
:103FA0004FF0500080F31188BFF36F8FBFF34F8F36
:103FB000FEE7000040F28000C2F200000169002923
:103FC0000FBF01204069B0FA80F0400918BF4000DF
:103FD0007047000040F28000C2F200008069704724
:103FE0002DE9F04381B040F28006C2F2000670690C
:103FF00040B1706B002401307063204601B0BDE811
:10400000F08300BFB06910F10109C6F8189020D301
:10401000F069006850B14FF0500080F31188BFF391
:104020006F8FBFF34F8F00BFFEE700BFF069316AAB
:10403000F1613062B06B0130B063F069006828B1A3
:10404000F069C068C068406802E000BF4FF0FF3010
:10405000F062F06A40F2F0388145C2F2000801D205
:1040600000242EE0F0690024006813E0F86A716A09
:10407000884288BF706200EB800008EB8000294610
:10408000FFF736F8F86A3168C96AF269884228BFD2
:104090000124106890B1F069C068C7683D4655F8C2
:1040A000040F81450CD32846FEF7B2FFB86A0028FA
:1040B000DCD007F11800FEF7ABFFD7E74FF0FF3079
:1040C000F0623068C06A00EB800058F820000128D8
:1040D00088BF0124306B002818BF0124204601B09E
:1040E000BDE8F08370B588B140F28005C2F20005EA
:1040F000296881420CD04FF0500080F31188BFF343
:104100006F8FBFF34F8F00BFFEE700BF002070BD71
:10411000016D29B3013901654FF000011DD1C26A5B
:10412000C36C9A4219D0041D06462046FEF770FF64
:10413000F06CC0F13801F062B161696A884240F206
:10414000F03188BF686200EB8000C2F2000101EB31
:1041500080002146FEF7CCFF0121084670BD00BF5C
:104160004FF0500080F31188BFF36F8FBFF34F8F74
:10417000FEE7000070B5C068C5686DB105F11804B0
:104180002046FEF745FF40F28006C2F20006706945
:1041900060B106F164001AE04FF0500080F311881E
:1041A000BFF36F8FBFF34F8FFEE700BF2C1D20467C
:1041B000FEF72EFFE86A716A884240F2F03188BF4C
:1041C000706200EB8000C2F2000101EB800021462A
:1041D000FEF78EFFE86A3168C96A884292BF002004
:1041E0000120306370BD00002DE9F04140F28005F0
:1041F000C2F20005686968B1FEF792FF686901388C
:104200006861686980B10024FEF7AEFF2046BDE812
:10421000F08100BF4FF0500080F31188BFF36F8F23
:10422000BFF34F8FFEE700BFE8680028EBD0686E51
:1042300088B340F2F036C2F200064FF0010800BF2A
:10424000286FC76807F11800FEF7E2FE3C1D204604
:10425000FEF7DEFEF86A696A884288BF686200EB92
:10426000800006EB80002146FEF742FFF86A2968CD
:10427000C96A884228BFC5F83080686E0028DFD13F
:10428000E869006820B1E869C068C068406801E07A
:104290004FF0FF30E8626C6B4CB10126FFF7A0FED7
:1042A000002818BF2E63013CF8D100206863286BFA
:1042B0000028A8D04EF60450CEF200004FF08051F6
:1042C0000160BFF34F8F0124BFF36F8FFEF74CFFE8
:1042D0002046BDE8F081000070B586B0FEF720FFF3
:1042E00040F2F806C2F20006306808BB06F114047A
:1042F0002046FEF7BBFE06F128052846FEF7B6FE6F
:1043000040F2003240F2A033C6E902450025C2F275
:104310000002C2F200030A2010210095FFF7A2FA62
:10432000306028B144F28E41C0F60001FEF7B8FFBC
:10433000FEF71AFF3068D8B10020CDE9040005A8C7
:1043400004A903AAFEF784FEDDE903200221059DEE
:10435000CDE9001042F60D20C0F6000009A10023AF
:104360000295FFF7EBFD706010B1012006B070BD43
:104370004FF0500080F31188BFF36F8FBFF34F8F62
:10438000FEE700BF546D722053766300F1EE100A11
:104390004FF6FF71C0F2C03120EA010040F04070DA
:1043A000E1EE100A7047000000000000000001026A
:1043B00003040607080900000000010203040000CE
:1043C0005844000800000000000000000000000049
:1043D00000000000000400001800000000000000C1
:1043E000000000007444000800000000000000000D
:1043F00000000000000000000004000018000000A1
:1044000000000000000000006644000800000000FA
:104410000000000000000000000000000004000098
:104420001800000000000000000000000006101648
:104430000006101682440008000000000000000082
:104440000000000000000000000200001800000052
:1044500000000000000000004F535F427574746F4D
:104460006E5461736B004F535F536572766F735474
:1044700061736B004F535F4465746563745461737B
:104480006B0064656661756C745461736B00546D88
:1044900072510000B8440008000000201000000025
:1044A000EC010008C8440008100000204051000042
:1044B0000C020008000000000100000010000000D5
:0844C0000024F400AAAAAAAA34
:040000050800018965
:00000001FF
