:020000040800F2
:100000005051002055020008C92B0008C9290008DA
:10001000C52B00084D050008DD3300080000000076
:10002000000000000000000000000000B12C0008EB
:10003000C906000800000000412C0008052D00083A
:100040006F0200086F0200086F0200086F020008CC
:100050006F0200086F0200086F0200086F020008BC
:100060006F0200086F0200086F0200086F020008AC
:100070006F0200086F0200086F0200086F0200089C
:100080006F0200086F0200086F0200086F0200088C
:100090006F0200086F0200086F0200086F0200087C
:1000A0006F0200086F0200086F0200086F0200086C
:1000B0006F0200086F0200086F0200086F0200085C
:1000C0006F0200086F0200086F0200086F0200084C
:1000D0006F020008CD3300086F0200086F020008AD
:1000E0006F0200086F0200086F0200086F0200082C
:1000F0006F020008F52D00086F0200086F0200086B
:100100006F0200086F0200086F0200086F0200080B
:100110006F0200086F0200086F0200086F020008FB
:100120006F0200086F020008610500086F020008F6
:100130006F0200086F0200086F0200086F020008DB
:100140006F0200086F0200086F0200086F020008CB
:100150006F0200086F020008710500086F020008B6
:100160006F0200086F0200086F0200086F020008AB
:100170006F0200086F0200086F0200080000000014
:100180006F0200086F02000800F002F800F052F859
:1001900014A696E8000CB244B344DA4501D100F04D
:1001A00049F8BAE80F000FA696E83000A5EB040561
:1001B00004EB0607AAEB0704A7F101074FEA1515A0
:1001C0004FEA3414A4F10104AC4201D300F032F838
:1001D00013F0010F18BFFB1A43F0010300F001F800
:1001E000DBE718476C6000008C600000103A24BF09
:1001F00078C878C1FAD8520724BF30C830C144BF8C
:1002000004680C6070470000704700000023002461
:1002100000250026103A28BF78C1FBD8520728BF16
:1002200030C148BF0B6070471FB505F087FF1FBD89
:1002300010B510BD00F04FF91146FFF7F5FF03F0C0
:1002400051F900F06DF903B4FFF7F2FF03BC00F0C1
:1002500075F900000948804709480047FEE7FEE7B6
:10026000FEE7FEE7FEE7FEE7FEE7FEE7FEE7FEE766
:1002700004480549054A064B70470000E12D000877
:1002800089010008504B002050510020504D0020A3
:10029000504D002053EA020C00F069802DE9F04B2C
:1002A0004FF00006002B1FBFB3FA83F503FA05F4E5
:1002B00024FA05F65E4012BF1643B2FA82F502FA3E
:1002C00005F4C5F120051EBF22FA05FC44EA0C0422
:1002D000203556EA044C4FEA144418BF641C4FF012
:1002E00000084FF00009904271EB030C39D300294C
:1002F00019BFB1FA81F701FA07F6B0FA80F700FAF0
:1003000007F6C7F120071EBF20FA07FC46EA0C06D5
:100310002037B6FBF4FCA7EB0507103F07F01F0BD7
:10032000CBF120062CFA06F60CFA0BFB44BFB346C1
:100330000026202FA4BF5E464FF0000B5BEA060CA0
:1003400008BF4FF0010B19EB0B0948EB0608ABFB9C
:10035000027C06FB02CC0BFB03CCC01B71EB0C0137
:10036000C1E70B46024641464846BDE8F08B13B54F
:10037000084318BF4FF0FF300146AFF30080BDE8DF
:100380001C407047032A40F2308010F0030C00F04C
:10039000158011F8013BBCF1020F624498BF11F8BF
:1003A00001CB00F8013B38BF11F8013BA2F1040278
:1003B00098BF00F801CB38BF00F8013B11F00303F0
:1003C00000F05780083AC0F0088051F8043B083A22
:1003D00051F804CBA0E80810F5E7121D5CBF51F8F6
:1003E000043B40F8043BAFF30080D20724BF11F870
:1003F000013B11F801CB48BF11F8012B24BF00F8D5
:10040000013B00F801CB48BF00F8012B704702F018
:10041000FF0343EA032242EA024200F002B84FF02F
:10042000000200B5134694469646203922BFA0E844
:100430000C50A0E80C50B1F12001BFF4F7AF090750
:1004400028BFA0E80C5048BF0CC05DF804EB890041
:1004500028BF40F8042B08BF704748BF20F8022B84
:1004600011F0804F18BF00F8012B7047704770479C
:10047000704710B5203AC0F00B80B1E81850A0E8E2
:100480001850B1E81850A0E81850203ABFF4F5AF62
:100490005FEA027C24BFB1E81850A0E8185044BFBE
:1004A00018C918C0BDE810405FEA827C24BF51F82B
:1004B000043B40F8043B08BF7047D20728BF31F81F
:1004C000023B48BF11F8012B28BF20F8023B48BF70
:1004D00000F8012B7047754600F02CF8AE46050079
:1004E0006946534620F00700854618B020B5FFF74F
:1004F000BFFEBDE820404FF000064FF000074FF070
:1005000000084FF0000BAC46ACE8C009ACE8C009ED
:10051000ACE8C009ACE8C00921F007018D4670477E
:1005200010B50446AFF300802046BDE81040FFF749
:100530008ABE0000004870471000002001491820C2
:10054000ABBEFEE72600020070470000FFE7FEE7B3
:1005500080B582B00190FFE7012002F0DBFFFBE7EE
:1005600080B540F2AC00C2F2000000F08BFA80BD12
:1005700080B540F20C10C2F2000000F083FA80BD9A
:1005800082B001900198007810384AF6AB21CAF683
:10059000AA21A0FB011000090090009946F26E10FC
:1005A000C0F60000405C0199C8650098042807D394
:1005B000FFE701990868042262F30900886506E0F4
:1005C0000199086840F2FF3290438865FFE701987F
:1005D000806D02B07047000086B0059000208DF855
:1005E00013000598806A03900598806910BBFFE7A7
:1005F0000398029003281BD80299DFE801F0020D4E
:100600000218059890F82F00C00720B1FFE70120DD
:100610008DF81300FFE70CE00598C06AB0F1C07FC9
:1006200004D1FFE701208DF81300FFE701E000E0AF
:10063000FFE745E005988069B0F5005F25D1FFE749
:100640000398019003281ED80199DFE801F0020603
:10065000021101208DF8130016E0059890F82F0084
:10066000C00720B1FFE701208DF81300FFE70BE082
:100670000598C06AB0F1C07F04D1FFE701208DF872
:100680001300FFE700E0FFE719E00398009003285C
:1006900004D3FFE70098032804D00EE001208DF872
:1006A00013000BE0059890F82F00C00720B1FFE77A
:1006B00001208DF81300FFE700E0FFE7FFE7FFE709
:1006C0009DF8130006B070477047000080B582B0F7
:1006D0000190FFE7012002F01DFFFBE772B6FFE784
:1006E000FEE7000080B584B00290029820B9FFE7D1
:1006F00001208DF80F00E0E0029890F8200020B96A
:10070000FFE7029800F0DEF8FFE70298016808684A
:1007100040F00100086000F0D9FD0190FFE7029869
:1007200000684068C007A8B9FFE700F0CFFD019955
:10073000401A0B280DD3FFE70299486A40F40030B5
:1007400048620299052081F8200001208DF80F00F1
:10075000B3E0E4E702980168086820F0020008604E
:1007600000F0B4FD0190FFE7029800684068800740
:10077000002815D5FFE700F0A9FD0199401A0B28C4
:100780000DD3FFE70299486A40F4003048620299AD
:10079000052081F8200001208DF80F008DE0E3E7AF
:1007A0000298007E012807D1FFE7029801680868D7
:1007B00040F08000086006E002980168086820F0B8
:1007C00080000860FFE70298407E012807D1FFE71C
:1007D00002980168086840F04000086006E002984E
:1007E0000168086820F040000860FFE70298807EFA
:1007F000012807D1FFE702980168086840F020004F
:10080000086006E002980168086820F0200008608F
:10081000FFE70298C07E012807D1FFE70298016830
:10082000086820F01000086006E002980168086877
:1008300040F010000860FFE70298007F012807D110
:10084000FFE702980168086840F00800086006E0C9
:1008500002980168086820F008000860FFE7029825
:10086000407F012807D1FFE702980168086840F03F
:100870000400086006E002980168086820F004009F
:100880000860FFE7029B19685A689868D3F80CC0A3
:1008900040EA0C00D3F810C040EA0C005B69184332
:1008A000013A1043C861029900204862029A01216E
:1008B00082F820108DF80F00FFE79DF80F0004B0BC
:1008C00080BD000080B588B007900020069005909C
:1008D0000490039002900798006846F20041C4F229
:1008E0000001884233D1FFE7FFE70020019043F683
:1008F0004000C4F20200016841F00071016000682C
:1009000000F0007001900198FFE7FFE700200090E1
:1009100043F63000C4F20200016841F008010160B2
:10092000006800F0080000900098FFE703200290A4
:10093000022103910021049105900920069040F6C0
:100940000040C4F2020002A900F0E4FAFFE708B098
:1009500080BD000080B584B002900298806D019047
:1009600000F0B4FC0090029890F8350002280DD0F9
:10097000FFE7029980204865FFE70299002081F88F
:100980003400FFE701208DF80F0055E00298016860
:10099000086820F01600086002980168486920F095
:1009A000800048610298006C20B9FFE70298806CD3
:1009B00038B1FFE702980168086820F00800086075
:1009C000FFE702980168086820F001000860FFE76F
:1009D000029800680068C007C8B1FFE700F076FC25
:1009E0000099401A062811D3FFE702992020486594
:1009F0000299032081F83500FFE70299002081F871
:100A00003400FFE703208DF80F0015E0E0E70298BF
:100A1000C16D3F208840019988600299012081F8CA
:100A20003500FFE70299002081F83400FFE7FFE777
:100A300000208DF80F00FFE79DF80F0004B080BD87
:100A400082B00090009890F83500022807D0FFE7A8
:100A500000998020486501208DF807000EE000997C
:100A6000052081F8350000980168086820F0010031
:100A70000860FFE700208DF80700FFE79DF80700FA
:100A800002B0704780B586B005900020039040F218
:100A90000000C2F20000006848F2B511C1F64E3104
:100AA000A0FB0110800A02900598806D01900198CA
:100AB0000068049004980599C96DC8400007002893
:100AC0001AD5FFE70598006800684007002812D58E
:100AD000FFE705980168086820F0040008600598A1
:100AE000C16D08208840019988600599486D40F0E3
:100AF00001004865FFE7FFE704980599C96DC84004
:100B0000C007A0B1FFE7059800684069000600280B
:100B10000CD5FFE70598C16D0120884001998860D8
:100B20000599486D40F002004865FFE7FFE704982B
:100B30000599C96DC8404007002814D5FFE70598FE
:100B400000680068800700280CD5FFE70598C16D94
:100B500004208840019988600599486D40F00400A0
:100B60004865FFE7FFE704980599C96DC840C006CE
:100B7000002847D5FFE705980068006800070028AF
:100B80003FD5FFE70598C16D102088400199886026
:100B9000059800680068400300281AD5FFE705980B
:100BA000006800680003002809D4FFE70598006C7E
:100BB00020B1FFE70598016C8847FFE708E005983A
:100BC000806C20B1FFE70598816C8847FFE7FFE75D
:100BD00016E0059800680068C005002807D4FFE704
:100BE00005980168086820F008000860FFE705988C
:100BF000006C20B1FFE70598016C8847FFE7FFE72D
:100C0000FFE7FFE704980599C96DC84080060028F2
:100C100040F18D80FFE7059800680068C006002855
:100C200040F18480FFE70598C16D2020884001993C
:100C30008860059890F83500052834D1FFE70598BD
:100C40000168086820F01600086005980168486986
:100C500020F0800048610598006C20B9FFE70598F6
:100C6000806C38B1FFE705980168086820F008003B
:100C70000860FFE70598C16D3F20884001998860B2
:100C80000599012081F83500FFE70599002081F8DA
:100C90003400FFE70598006D20B1FFE70598016D6E
:100CA0008847FFE77BE0059800680068400300285C
:100CB0001AD5FFE70598006800680003002809D4EA
:100CC000FFE70598406C20B1FFE70598416C884725
:100CD000FFE708E00598C06B20B1FFE70598C16BFE
:100CE0008847FFE7FFE720E0059800680068C00537
:100CF000002811D4FFE705980168086820F010006B
:100D000008600599012081F83500FFE7059900206A
:100D100081F83400FFE7FFE70598C06B20B1FFE7DB
:100D20000598C16B8847FFE7FFE7FFE7FFE70598F6
:100D3000406DA0B3FFE70598406DC00730B3FFE7F3
:100D40000599052081F8350005980168086820F0AC
:100D500001000860FFE70398013003900299884280
:100D600001D9FFE707E0FFE7059800680068C007C2
:100D70000028F0D1FFE70599012081F83500FFE751
:100D80000599002081F83400FFE7FFE70598C06C63
:100D900020B1FFE70598C16C8847FFE7FFE706B081
:100DA00080BD000080B586B004900020039000F064
:100DB0008DFA0290049820B9FFE701208DF8170002
:100DC000A3E00498406A08B1FFE7FFE70499022016
:100DD00081F83500FFE70499002081F83400FFE72F
:100DE00004980168086820F001000860FFE7049893
:100DF00000680068C00790B1FFE700F067FA029949
:100E0000401A06280AD3FFE7049920204865049970
:100E1000032081F835008DF8170076E0E7E70498A5
:100E2000006800680390039848F23F01CFF2100178
:100E300008400390049900914868D1F808C0CB6835
:100E40000A6940EA0C00184310434A6910438A6952
:100E50001043CA691043096A014303980843039089
:100E60000498406A042808D1FFE70499C86A096B0E
:100E70000143039808430390FFE703980499096826
:100E800008600498006840690390039820F0070008
:100E900003900498416A0398084303900498406AB9
:100EA00004281AD1FFE70498816A03980843039045
:100EB0000498C06A80B1FFE70498FFF78DFB50B13A
:100EC000FFE70499402048650499012081F8350026
:100ED0008DF8170019E0FFE7FFE703980499096808
:100EE00048610498FFF74CFB01900498C16D3F20C6
:100EF000884001998860049900204865049A01217E
:100F000082F835108DF81700FFE79DF8170006B03E
:100F100080BD00008EB00D900C9100200A900990C9
:100F200008900B90FFE70B980F2800F2CC81FFE7A9
:100F30000B99012088400A900C9800680A99084093
:100F4000099009980A99884240F0B881FFE70C9807
:100F5000406800F00300012807D0FFE70C984068C4
:100F600000F0030002282FD1FFE70D988068089059
:100F70000B984100032000FA01F10898884308907B
:100F80000C98C0680B99490000FA01F108980843D1
:100F9000089008980D9988600D98406808900B9902
:100FA000012000FA01F10898884308900C984068E5
:100FB000C0F300100B9900FA01F10898084308905B
:100FC00008980D994860FFE70C98406800F003000E
:100FD000032818D0FFE70D98C06808900B984100CF
:100FE000032000FA01F10898884308900C98806863
:100FF0000B99490000FA01F10898084308900898F5
:101000000D99C860FFE70C98406800F003000228C3
:1010100026D1FFE70D980B996FF0030202EA510108
:101020000844006A08900B9800F0070081000F2028
:1010300000FA01F10898884308900C9800690B9910
:1010400001F00701890000FA01F1089808430890AF
:1010500008980D990B9B02EA530211440862FFE7BE
:101060000D98006808900B984100032000FA01F1E8
:101070000898884308900C98406800F003000B998A
:10108000490000FA01F108980843089008980D9962
:1010900008600C9880798007002800F00E81FFE737
:1010A000FFE70020079043F64400C4F20200016805
:1010B00041F480410160006800F480400790079887
:1010C000FFE70B9820F0030043F60801C4F201018A
:1010D000405808900B9800F0030081000F2000FAA0
:1010E00001F10898884308900D980021C4F202018C
:1010F000884203D1FFE7002006905EE00D9840F2A1
:101100000041C4F20201884203D1FFE701200590AB
:1011100050E00D9840F60001C4F20201884203D16C
:10112000FFE70220049042E00D9840F60041C4F22F
:101130000201884203D1FFE70320039034E00D98B9
:1011400041F20001C4F20201884203D1FFE704200A
:10115000029026E00D9841F20041C4F2020188425B
:1011600003D1FFE70520019018E00D9841F600013A
:10117000C4F20201884203D1FFE7062000900AE092
:101180000D9941F60042C4F202020820914208BFC4
:1011900007200090FFE700980190FFE70198029078
:1011A000FFE702980390FFE703980490FFE7049895
:1011B0000590FFE705980690FFE70698C0B20B99E7
:1011C00001F00301890000FA01F108980843089032
:1011D00008980B9921F0030143F60802C4F20102BA
:1011E000885043F60840C4F201000068089009994D
:1011F0000898884308900C988079C006002805D587
:10120000FFE70999089808430890FFE7089843F614
:101210000841C4F20101086043F60C40C4F2010029
:101220000068089009990898884308900C9880797C
:101230008006002805D5FFE709990898084308901B
:10124000FFE7089843F60C41C4F20101086043F639
:101250000440C4F201000068089009990898884386
:1012600008900C9880798007002805D5FFE7099938
:10127000089808430890FFE7089843F60441C4F231
:101280000101086043F60040C4F2010000680890C4
:1012900009990898884308900C988079C00728B16C
:1012A000FFE70999089808430890FFE7089843F674
:1012B0000041C4F201010860FFE7FFE7FFE70B9878
:1012C00001300B902FE60EB07047000044F27030F2
:1012D000C2F200000068704740F20400C2F2000051
:1012E000027844F27031C2F20001086810440860CC
:1012F0007047000080B543F60041C4F2020108685F
:1013000040F400700860086840F480600860086875
:1013100040F480700860032000F0D0F80F2000F047
:1013200005F800F07BF8002080BD000080B58CB08F
:101330000B90002004900390FFE70020009043F6FC
:101340004000C4F20200016841F48071016000684D
:1013500000F4807000900098FFE706A802A900F052
:10136000E7F909980490049820B9FFE700F010FA13
:10137000059004E000F00CFA40000590FFE70598A6
:101380004DF68361C4F21B31A0FB01014FF0FF3029
:1013900000EB9140039040F26C10C2F2000042F268
:1013A0000001C4F20001016040F2E731C16003991D
:1013B0004160002101618160816100F0E9FD8DF8EB
:1013C00007009DF8070028BBFFE740F26C10C2F24F
:1013D000000000F02FFE8DF807009DF80700C0B94F
:1013E000FFE72D2000F046F80B980F280CD8FFE7F8
:1013F0000B992D20002200F047F80B9840F20801CD
:10140000C2F20001086003E001208DF80700FFE749
:10141000FFE7FFE79DF807000CB080BD80B582B004
:10142000FFE70020019043F64400C4F20200016887
:1014300041F480410160006800F48040019001980F
:10144000FFE7FFE70020009043F64000C4F20200EF
:10145000016841F080510160006800F08050009008
:101460000098FFE76FF001000F21002200F00CF858
:1014700002B080BD80B582B08DF807009DF90700ED
:1014800001F0AEFF02B080BD80B586B08DF81700C8
:10149000049103920020029001F0BAFF02909DF99E
:1014A0001700019002980499039A01F08FFB0146FE
:1014B000019801F0B5FF06B080BD000080B582B094
:1014C0000190019801F0F0FF02B080BD80B584B0BA
:1014D00002900191029820B9FFE701208DF80F00DA
:1014E00021E1019843F60041C4F20201096801F0CC
:1014F0000701884212D9FFE7019943F60040C4F280
:1015000002000170006800F007000199884204D0D1
:10151000FFE701208DF80F0005E1FFE70298007852
:10152000800700282AD5FFE70298007840070028A6
:1015300009D5FFE743F60801C4F20201086840F448
:10154000E0500860FFE7029800780007002809D5FE
:10155000FFE743F60801C4F20201086840F4604066
:101560000860FFE743F60801C4F20201086820F0B2
:10157000F000029A926810430860FFE70298007832
:10158000C00700286ED0FFE702984068012811D1FB
:10159000FFE743F60000C4F20200006800F40031E7
:1015A0000020B0EB514F04D1FFE701208DF80F0070
:1015B000B9E02CE002984068022805D0FFE70298C5
:1015C0004068032811D1FFE743F60000C4F202008F
:1015D000006800F000710020B0EB516F04D1FFE70C
:1015E00001208DF80F009EE010E043F60000C4F2E9
:1015F0000200006800F002010020B0EB510F04D19E
:10160000FFE701208DF80F008DE0FFE7FFE743F6CD
:101610000801C4F20201086820F00300029A52682F
:1016200010430860FFF752FE0090FFE743F6080002
:10163000C4F20200006800F00C0002994968B0EBA7
:10164000810F0ED0FFE7FFF741FE0099401A41F2EB
:101650008931884204D3FFE703208DF80F0062E050
:10166000E4E7FFE7019843F60041C4F2020109688C
:1016700001F00701884212D2FFE7019943F60040CA
:10168000C4F202000170006800F00700019988426E
:1016900004D0FFE701208DF80F0044E0FFE7029837
:1016A0000078400700280CD5FFE743F60801C4F294
:1016B0000201086820F4E050029AD26810430860E2
:1016C000FFE702980078000700280DD5FFE743F6F2
:1016D0000801C4F20201086820F46040029A12690D
:1016E00040EAC2000860FFE700F076F843F6080120
:1016F000C4F202010968C9B20A0946F25611C0F6DD
:101700000001895CC84040F20001C2F2000108609B
:1017100040F20800C2F200000068FFF707FE002058
:101720008DF80F00FFE79DF80F0004B080BD0000AA
:1017300082B00190009101990F20086043F60800E3
:10174000C4F20200016801F00301019A51600168CE
:1017500001F0F001019A9160016801F4E051019AF1
:10176000D160006800F46040C0080199086143F648
:101770000040C4F20200006800F007000099086011
:1017800002B0704740F20000C2F2000000687047EB
:1017900080B5FFF7F7FF43F60801C4F202010968BC
:1017A000C1F3822246F26611C0F60001895CC8408E
:1017B00080BD000080B5FFF7E5FF43F60801C4F2E5
:1017C0000201096889B24A0B46F26611C0F60001AF
:1017D000895CC84080BD000080B586B000200590BF
:1017E00004900390029043F60800C4F202000068DF
:1017F00000F00C000146019140B1FFE70198042878
:101800000AD0FFE7019808280CD04FE042F20040D0
:10181000C0F2F40002904FE041F60030C0F2B70091
:10182000029049E043F60400C4F20200016801F0AE
:101830003F01059100684002002813D5FFE743F6F9
:101840000400C4F202000068C0F3881041F60031C1
:10185000C0F2B701A0FB0101059A0023FEF71AFDB3
:10186000049012E043F60400C4F202000068C0F3E2
:10187000881042F20041C0F2F401A0FB0101059A78
:101880000023FEF707FD0490FFE743F60400C4F2CF
:101890000200006800F44031022000EBD1300390D8
:1018A00004980399B0FBF1F0029005E042F2004089
:1018B000C0F2F4000290FFE7029806B080BD00007D
:1018C00080B586B00490049820B9FFE701208DF818
:1018D000170050E304980078C007002800F0A580A6
:1018E000FFE743F60800C4F20200006800F00C00B5
:1018F000042813D0FFE743F60800C4F20200006892
:1019000000F00C0008281ED1FFE743F60400C4F2E3
:10191000020000684002002815D5FFE743F60000EA
:10192000C4F20200006800F400310020B0EB514F17
:1019300008D0FFE70498406820B9FFE701208DF840
:10194000170018E370E0FFE704984068B0F5803FA7
:1019500009D1FFE743F60001C4F20201086840F430
:101960008030086020E004984068B0F5A02F0DD1C9
:10197000FFE743F60001C4F20201086840F480204A
:101980000860086840F4803008600CE043F600010D
:10199000C4F20201086820F480300860086820F46E
:1019A00080200860FFE7FFE7FFE704984068E8B1A0
:1019B000FFE7FFF78BFC0390FFE743F60000C4F25C
:1019C0000200006800F400310020B0EB514F0CD150
:1019D000FFE7FFF77BFC0399401A652804D3FFE774
:1019E00003208DF81700C6E2E7E71CE0FFF76EFC66
:1019F0000390FFE743F60000C4F20200006800F421
:101A000000310020B0EB514F0CD0FFE7FFF75EFC38
:101A10000399401A652804D3FFE703208DF81700C7
:101A2000A9E2E7E7FFE7FFE7FFE704980078800710
:101A3000002840F19680FFE743F60800C4F2020058
:101A4000006810F00C0F13D0FFE743F60800C4F253
:101A50000200006800F00C0008282CD1FFE743F6D4
:101A60000400C4F2020000684002002823D4FFE70B
:101A700043F60000C4F20200006800F002010020FA
:101A8000B0EB510F09D0FFE70498C068012804D0DB
:101A9000FFE701208DF817006DE243F60001C4F264
:101AA0000201086820F0F800049A126940EAC200B6
:101AB0000860FFE754E00498C06870B3FFE70021B6
:101AC000C4F2472101200860FFF700FC0390FFE704
:101AD00043F60000C4F20200006800F0020100209A
:101AE000B0EB510F0CD1FFE7FFF7F0FB0399401A61
:101AF000032804D3FFE703208DF817003BE2E7E754
:101B000043F60001C4F20201086820F0F800049ACC
:101B1000126940EAC200086021E00021C4F24721B6
:101B200000200860FFF7D2FB0390FFE743F60000B8
:101B3000C4F20200006800F002010020B0EB510F77
:101B40000CD0FFE7FFF7C2FB0399401A032804D328
:101B5000FFE703208DF817000DE2E7E7FFE7FFE757
:101B6000FFE704980078000700284BD5FFE70498AA
:101B7000406918B3FFE740F68061C4F247210120B5
:101B80000860FFF7A3FB0390FFE743F67400C4F27D
:101B90000200006800F002010020B0EB510F0CD1F0
:101BA000FFE7FFF793FB0399401A032804D3FFE7ED
:101BB00003208DF81700DEE1E7E722E040F68061C0
:101BC000C4F2472100200860FFF780FB0390FFE785
:101BD00043F67400C4F20200006800F00201002025
:101BE000B0EB510F0CD0FFE7FFF770FB0399401AE1
:101BF000032804D3FFE703208DF81700BBE1E7E7D4
:101C0000FFE7FFE7049800784007002840F1CE8006
:101C1000FFE700208DF8070043F64000C4F2020001
:101C20000068C000002815D4FFE7FFE700200090FF
:101C300043F64000C4F20200016841F080510160A7
:101C4000006800F0805000900098FFE701208DF8B8
:101C50000700FFE747F20000C4F200000068C0057B
:101C6000002822D4FFE747F20001C4F2000108680F
:101C700040F480700860FFF729FB0390FFE747F20C
:101C80000000C4F200000068C00500280CD4FFE783
:101C9000FFF71CFB0399401A032804D3FFE7032036
:101CA0008DF8170067E1EAE7FFE7FFE7049880682F
:101CB000012809D1FFE743F67001C4F20201086868
:101CC00040F0010008601FE00498806805280DD1ED
:101CD000FFE743F67001C4F20201086840F0040017
:101CE0000860086840F0010008600CE043F67001ED
:101CF000C4F20201086820F001000860086820F0C2
:101D000004000860FFE7FFE7FFE704988068F8B188
:101D1000FFE7FFF7DBFA0390FFE743F67000C4F23A
:101D20000200006800F002010020B0EB510F0ED15C
:101D3000FFE7FFF7CBFA0399401A41F28931884255
:101D400004D3FFE703208DF8170014E1E5E71EE058
:101D5000FFF7BCFA0390FFE743F67000C4F20200FD
:101D6000006800F002010020B0EB510F0ED0FFE739
:101D7000FFF7ACFA0399401A41F28931884204D343
:101D8000FFE703208DF81700F5E0E5E7FFE79DF892
:101D90000700012809D1FFE743F64001C4F2020120
:101DA000086820F080500860FFE7FFE7049880692A
:101DB000002800F0DC80FFE743F60800C4F20200D0
:101DC000006800F00C00082800F08580FFE7049808
:101DD000806902285CD1FFE76021C4F2472100201E
:101DE0000860FFF773FA0390FFE743F60000C4F2C0
:101DF0000200006800F000710020B0EB516F0CD0C1
:101E0000FFE7FFF763FA0399401A032804D3FFE7BB
:101E100003208DF81700AEE0E7E70499C869D1F810
:101E200020C04B6A8A6A40EA0C0040EA8310D20361
:101E30004FF6FF739A43A2F580321043C96A40EA15
:101E4000016043F60401C4F2020108606021C4F29B
:101E5000472101200860FFF739FA0390FFE743F6B6
:101E60000000C4F20200006800F000710020B0EB36
:101E7000516F0CD1FFE7FFF729FA0399401A0328A5
:101E800004D3FFE703208DF8170074E0E7E721E0B3
:101E90006021C4F2472100200860FFF717FA039081
:101EA000FFE743F60000C4F20200006800F0007192
:101EB0000020B0EB516F0CD0FFE7FFF707FA039952
:101EC000401A032804D3FFE703208DF8170052E0DF
:101ED000E7E7FFE74AE004988069012804D1FFE7BB
:101EE00001208DF8170046E043F60400C4F202001A
:101EF0000068029004988069012831D0FFE70298B9
:101F000000F480000499C969884229D1FFE702984A
:101F100000F03F000499096A884221D1FFE7029846
:101F200047F6C07108400499496AB0EB811F17D188
:101F3000FFE7029800F440300499896AC9034FF61C
:101F4000FF729143A1F58031884209D1FFE70298E1
:101F500000F070600499C96AB0EB016F04D0FFE72C
:101F600001208DF8170006E0FFE7FFE7FFE70020FC
:101F70008DF81700FFE79DF8170006B080BD000040
:101F800081B0009001B0704781B0009001B07047FF
:101F900080B582B00090009820B9FFE701208DF84D
:101FA00007003FE0009890F83D0040B9FFE7009936
:101FB000002081F83C00009800F038F8FFE7009915
:101FC000022081F83D00009951F8040B00F01AFF3F
:101FD0000099012081F84600FFE70099012081F86F
:101FE0003E00009981F83F00009981F84000009977
:101FF00081F84100FFE7FFE70099012081F84200E6
:10200000009981F84300009981F84400009981F813
:102010004500FFE70099012081F83D0000208DF880
:102020000700FFE79DF8070002B080BD81B0009077
:1020300001B0704783B00190019890F83D000128ED
:1020400004D0FFE701208DF80B006AE0019902201F
:1020500081F83D0001980168C86840F00100C8603F
:10206000019800680021C4F2010188423CD0FFE7DA
:1020700001980068B0F1804F36D0FFE70198006802
:1020800040F20041C4F2000188422DD0FFE70198E0
:10209000006840F60001C4F20001884224D0FFE746
:1020A0000198006840F60041C4F2000188421BD04C
:1020B000FFE70198006840F20041C4F20101884244
:1020C00012D0FFE70198006844F20001C4F2010158
:1020D000884209D0FFE70198006841F60001C4F288
:1020E0000001884212D1FFE701980068806800F083
:1020F000070000900098062807D0FFE701980168C4
:10210000086840F001000860FFE706E001980168F8
:10211000086840F001000860FFE700208DF80B0020
:10212000FFE79DF80B0003B07047000081B00090FE
:1021300001B0704780B584B0039003980068C06810
:10214000029003980068006901909DF804008007E0
:10215000002824D5FFE79DF80800800700281DD53A
:10216000FFE7039801686FF00200086103990120FE
:102170000877039800688069800720B1FFE703981B
:10218000FFF7D4FF06E0039800F0E2F8039800F0B0
:10219000E3F8FFE7039900200877FFE7FFE79DF8E2
:1021A00004004007002825D5FFE79DF808004007F8
:1021B00000281ED5FFE7039801686FF0040008614E
:1021C00003990220087703980068806910F4407F23
:1021D00004D0FFE70398FFF7A9FF06E0039800F09B
:1021E000B7F8039800F0B8F8FFE7039900200877E4
:1021F000FFE7FFE79DF804000007002824D5FFE76C
:102200009DF80800000700281DD5FFE70398016826
:102210006FF00800086103990420087703980068AC
:10222000C069800720B1FFE70398FFF77FFF06E052
:10223000039800F08DF8039800F08EF8FFE70399FB
:1022400000200877FFE7FFE79DF80400C00600289C
:1022500025D5FFE79DF80800C00600281ED5FFE73A
:10226000039801686FF0100008610399082008774F
:1022700003980068C06910F4407F04D0FFE703981A
:10228000FFF754FF06E0039800F062F8039800F0AF
:1022900063F8FFE7039900200877FFE7FFE79DF861
:1022A0000400C00778B1FFE79DF80800C00748B1F7
:1022B000FFE7039801686FF001000861039800F0E0
:1022C0004FF8FFE7FFE79DF804000006002810D54F
:1022D000FFE79DF808000006002809D5FFE70398EE
:1022E00001686FF0800008610398FFF749FEFFE77F
:1022F000FFE79DF804004006002810D5FFE79DF891
:1023000008004006002809D5FFE7039801686FF030
:1023100040000861039800F035F8FFE7FFE79DF8FB
:1023200004008006002810D5FFE79DF8080080060D
:10233000002809D5FFE7039801686FF020000861C5
:102340000398FFF721FEFFE7FFE704B080BD000020
:1023500081B0009001B0704781B0009001B070472B
:1023600080B582B001900198006842F20001C4F289
:102370000001884203D1FFE7FEF7AEFFFFE702B09E
:1023800080BD000081B0009001B0704782B0019024
:10239000ADF8021002B0704781B0009001B07047F4
:1023A00080B592B011901198006800681090119853
:1023B0000068C0680F901198006840690E90002076
:1023C0000D900C90109800F00F000D900D9888B9AA
:1023D000FFE79DF84000800600280AD5FFE79DF83A
:1023E0003C008006002804D5FFE7119800F050FE5D
:1023F000EAE1FFE70D98002800F0C280FFE79DF8B2
:102400003800C00738B9FFE7BDF83C0010F4907FF2
:1024100000F0B680FFE79DF84000C00758B1FFE725
:102420009DF83D00C00730B1FFE71199486C40F0BE
:1024300001004864FFE79DF84000400700280BD5E5
:10244000FFE79DF83800C00730B1FFE71199486CED
:1024500040F002004864FFE79DF840008007002834
:102460000BD5FFE79DF83800C00730B1FFE71199A1
:10247000486C40F004004864FFE79DF84000000706
:10248000002811D5FFE79DF83C008006002805D400
:10249000FFE79DF83800C00730B1FFE71199486C9D
:1024A00040F008004864FFE71198406C002866D0AF
:1024B000FFE79DF84000800600280AD5FFE79DF859
:1024C0003C008006002804D5FFE7119800F0E0FDED
:1024D000FFE7119800684069C0F380100C901198D4
:1024E000406C0007002804D4FFE70C9800283ED079
:1024F000FFE7119800F06EFD1198006840694006F2
:1025000000282FD5FFE7FFE7FFE71198006850E8A4
:10251000050F20F040000B90FFE70B99119802681F
:1025200042E805100028F0D1FFE7FFE71198C06BE3
:1025300098B1FFE71198C16B42F6B570C0F6000084
:1025400008651198C06BFEF77BFA28B1FFE7119878
:10255000C06B016D8847FFE703E01198FFF71CFF90
:10256000FFE703E01198FFF717FFFFE706E0119878
:10257000FFF712FF119900204864FFE7FFE723E10E
:102580001198006B012840F0FF80FFE79DF84000A4
:10259000C006002840F1F880FFE79DF83C00C00627
:1025A000002840F1F180FFE7FFE700200A90119832
:1025B000006800680A901198006840680A900A98BC
:1025C000FFE71198006840694006002840F18280CA
:1025D000FFE71198C06B00684068ADF82600BDF8B1
:1025E0002600002875D0FFE7BDF826001199898DD7
:1025F00088426EDAFFE7BDF826001199C885119868
:10260000C06BC069B0F5807F58D0FFE7FFE7FFE7F8
:102610001198006850E8030F20F480700890FFE7DD
:1026200008991198026842E803100028F0D1FFE7EA
:10263000FFE7FFE7FFE71198006850E8050F20F07B
:1026400001000790FFE707991198026842E805101A
:102650000028F0D1FFE7FFE7FFE7FFE711980068E8
:1026600050E8050F20F040000690FFE7069911980A
:10267000026842E805100028F0D1FFE7FFE7119952
:10268000202081F84200119900200863FFE7FFE74E
:102690001198006850E8030F20F010000590FFE744
:1026A00005991198026842E803100028F0D1FFE76D
:1026B000FFE71198C06BFEF74DF9FFE71199022073
:1026C00048631198818DC28D891A89B2FFF75EFE29
:1026D000FFE779E01199888DC98D401AADF8120095
:1026E0001198C08D00284ED0FFE7BDF812000028D9
:1026F00049D0FFE7FFE7FFE71198006850E8030FB4
:1027000020F490700390FFE703991198026842E863
:1027100003100028F0D1FFE7FFE7FFE7FFE711987C
:10272000006850E8050F20F001000290FFE70299D1
:102730001198026842E805100028F0D1FFE7FFE792
:102740001199202081F84200119900200863FFE7C9
:10275000FFE71198006850E8030F20F01000019087
:10276000FFE701991198026842E803100028F0D1B0
:10277000FFE7FFE71199022048631198BDF8121096
:10278000FFF704FEFFE71FE09DF840000006002869
:102790000AD5FFE79DF83C000006002804D5FFE7B6
:1027A000119800F0C9FD0FE09DF840004006002898
:1027B0000AD5FFE79DF83C004006002804D5FFE756
:1027C000119800F051FCFFE712B080BD80B582B0D7
:1027D0000090009820B9FFE701208DF8070040E045
:1027E0000098806908B1FFE700E0FFE7009890F8E3
:1027F000410040B9FFE70099002081F840000098AF
:1028000000F034F8FFE70099242081F84100009897
:102810000168C86820F40050C860009800F0EEFC21
:1028200000980168086920F49040086100980168E8
:10283000486920F02A00486100980168C86840F49F
:102840000050C860009900204864009A202182F856
:102850004110009A82F84210009948638DF80700F1
:10286000FFE79DF8070002B080BD000080B58CB086
:102870000B9000200A9009900890079006900B9802
:10288000006841F20001C4F20101884240F09280E8
:10289000FFE7FFE70020059043F64400C4F2020082
:1028A000016841F010010160006800F0100005901F
:1028B0000598FFE7FFE70020049043F63000C4F2DC
:1028C0000200016841F002010160006800F00200AE
:1028D00004900498FFE7C020069002200790002093
:1028E000029008900320099007200A9040F20040CF
:1028F000C4F2020006A9FEF70DFB029940F2AC00FB
:10290000C2F20000039046F24042C4F202020260AA
:102910004FF0006242608160C1604FF480620261EA
:1029200041618161C16101624162FEF73BFA18B108
:10293000FFE7FDF7D3FEFFE7FFE70B9840F2AC019E
:10294000C2F20001C1630B988863FFE740F20C10EC
:10295000C2F20000019046F2B841C4F202010160E7
:102960004FF000614160402181600021C1604FF45F
:102970008062026141618161C16101624162FEF771
:1029800011FA18B1FFE7FDF7A9FEFFE7FFE70B9883
:1029900040F20C11C2F2000181630B988863FFE7DB
:1029A0002520009005210022FEF76EFD0098FEF71D
:1029B00061FDFFE70CB080BD81B0009001B07047B1
:1029C00081B0009001B07047FFE7FEE780B582B0AC
:1029D00040F28400C2F20000009046F20041C4F2CE
:1029E0000001016010214160002101918160C160FE
:1029F00001614161017641768176C1760177417747
:102A0000FDF770FE18B1FFE7FDF768FEFFE702B0C3
:102A100080BD000080B586B0FFE70020059043F63A
:102A20003000C4F20200016841F4800101600068D6
:102A300000F4800005900598FFE73A2001900521F9
:102A4000029100220392FEF71FFD0198FEF712FD8E
:102A50000299039A46200490FEF716FD0498FEF7AB
:102A600009FD06B080BD000080B582B042F6F54099
:102A7000C0F6000046F2E412C0F600020021019107
:102A800000F0B0FD019940F28002C2F20002106035
:102A900042F6E540C0F6000046F2C012C0F6000261
:102AA00000F0A0FD019940F27C02C2F20002106029
:102AB00040F2CD60C0F6000046F29C12C0F6000263
:102AC00000F090FD019940F27802C2F2000210601D
:102AD00040F25150C0F6000046F27812C0F60002F3
:102AE00000F080FD40F27401C2F20001086002B003
:102AF00080BD000084B0FFE70020039043F6300063
:102B0000C4F20200016841F001010160006800F0B8
:102B1000010003900398FFE7FFE70020029043F6CF
:102B20003000C4F20200016841F002010160006857
:102B300000F0020002900298FFE7FFE700200190FA
:102B400043F63000C4F20200016841F00801016060
:102B5000006800F0080001900198FFE7FFE70020FF
:102B6000009043F63000C4F20200016841F0800199
:102B70000160006800F0800000900098FFE704B05A
:102B80007047000080B582B040F2B410C2F200007D
:102B9000019041F20001C4F2010101604FF4E13102
:102BA000416000218160C16001610C22426181614C
:102BB000C161FFF70BFE18B1FFE7FDF78FFDFFE7DF
:102BC00002B080BDFFE7FEE7FFE7FEE788B00790B1
:102BD00006910592079800F0070004900498C0F150
:102BE0000700052803D3FFE70420019004E00498C0
:102BF000C0F107000190FFE70198039004980430AA
:102C0000062803D8FFE70020009003E0049803386B
:102C10000090FFE70098029006980399012202FABB
:102C200001F101390840029B984005999A40013A08
:102C30001140084308B07047000000000000000089
:102C4000EFF30980BFF36F8F154B1A681EF0100F5A
:102C500008BF20ED108A20E9F04F10602DE909002F
:102C60004FF0500080F31188BFF34F8FBFF36F8F89
:102C700002F03CF94FF0000080F31188BDE8090034
:102C800019680868B0E8F04F1EF0100F08BFB0ECEC
:102C9000108A80F30988BFF36F8F704700BF00BFB1
:102CA000F002002000000000000000000000000012
:102CB000074B19680868B0E8F04F80F30988BFF344
:102CC0006F8F4FF0000080F31188704700BF00BF86
:102CD000F002002080B56FF00400002100F0C2FB7C
:102CE00080BD000080B582B00190FFE7012000F0B8
:102CF00011FCFBE780B582B00190FFE7012000F0F6
:102D000009FCFBE780B54EF21000CEF2000000682F
:102D100002F0C8FE012803D0FFE702F0F7F9FFE751
:102D200080BD000080B594B008A83021FDF777FB86
:102D3000002007900690059004900390FFE7002084
:102D4000029043F64000C4F20200016841F0805155
:102D50000160006800F0805002900298FFE7FFE7F2
:102D60000020019047F20000C4F20000016841F425
:102D700080410160006800F4804001900198FFE705
:102D8000012008904FF48030099002200E904FF4FB
:102D900080010F9106211091A82111911290042019
:102DA000139008A8FEF78CFD18B1FFE7FDF796FC1D
:102DB000FFE70F20039002200490002005904FF4BD
:102DC000A05006904FF48050079003A80521FEF70D
:102DD0007DFB18B1FFE7FDF781FCFFE714B080BD74
:102DE0004EF68851CEF20001086840F47000086089
:102DF0007047000080B540F26C10C2F20000FFF78F
:102E000099F980BD83B0029001910298006800900A
:102E100002980021C4F20101884225D0FFE7029800
:102E2000B0F1804F20D0FFE7029840F20041C4F299
:102E30000001884218D0FFE7029840F60001C4F272
:102E40000001884210D0FFE7029840F60041C4F22A
:102E50000001884208D0FFE7029840F20041C4F226
:102E6000010188420AD1FFE7009820F0700000902D
:102E700001984168009808430090FFE702980021FC
:102E8000C4F20101884255D0FFE70298B0F1804FAB
:102E900050D0FFE7029840F20041C4F2000188429E
:102EA00048D0FFE7029840F60001C4F200018842D2
:102EB00040D0FFE7029840F60041C4F2000188428A
:102EC00038D0FFE7029840F20041C4F20101884285
:102ED00030D0FFE7029844F20001C4F201018842B9
:102EE00028D0FFE7029844F20041C4F20101884271
:102EF00020D0FFE7029844F60001C4F201018842A5
:102F000018D0FFE7029841F60001C4F200018842A0
:102F100010D0FFE7029841F60041C4F20001884258
:102F200008D0FFE7029842F20001C4F20001884293
:102F30000AD1FFE7009820F4407000900198C16822
:102F4000009808430090FFE7009820F08000019966
:102F500049690843009000980299086001988068C8
:102F60000299C8620198006802998862029800215B
:102F7000C4F20101884208D0FFE7029840F2004104
:102F8000C4F20101884205D1FFE701980069029966
:102F90000863FFE702990120486102980069C007B1
:102FA00030B1FFE70299086920F001000861FFE7EE
:102FB00003B0704780B582B001900198806B00909B
:102FC00000990020C8850099C8840098FFF7E4F9AB
:102FD00002B080BD84B00390FFE7FFE7039800686C
:102FE00050E8030F20F490700290FFE702990398D5
:102FF000026842E803100028F0D1FFE7FFE7FFE78F
:10300000FFE70398006850E8050F20F001000190E9
:10301000FFE701990398026842E805100028F0D103
:10302000FFE7FFE70398006B012814D1FFE7FFE7F4
:10303000FFE70398006850E8030F20F010000090AD
:10304000FFE700990398026842E803100028F0D1D6
:10305000FFE7FFE7FFE70399202081F8420003998B
:103060000020086304B0704780B582B001900198D9
:103070000168C86820F04000C8600199202081F8EC
:1030800041000198FFF79CFC002002B080BD0000C9
:1030900080B586B00490049890F84200222840F051
:1030A000A480FFE704988068B0F5805F15D1FFE742
:1030B0000498006988B9FFE7002003900498806AAB
:1030C00002900498006840686FF35F2002990880BE
:1030D0000499886A0230886225E00498806A039027
:1030E0000020029004988068B0F5805F08D0FFE768
:1030F0000498806850B9FFE70498006930B9FFE789
:103100000498006840680399087007E00498006814
:10311000406800F07F0003990870FFE70499886A0F
:1031200001308862FFE70499C88D0138C885000422
:10313000002856D1FFE704980168C86820F02000F5
:10314000C86004980168C86820F48070C86004985A
:103150000168486920F0010048610499202081F845
:1031600042000499002048630498006B012830D184
:10317000FFE7049900200863FFE7FFE70498006871
:1031800050E8030F20F010000190FFE70199049828
:10319000026842E803100028F0D1FFE7FFE7049837
:1031A00000680068C00600280ED5FFE7FFE7002092
:1031B00000900498006800680090049800684068D7
:1031C00000900098FFE7FFE70498818DFFF7DEF895
:1031D00003E00498FFF7F0FBFFE700208DF81700ED
:1031E00007E000208DF8170003E002208DF817009B
:1031F000FFE79DF8170006B080BD000080B586B0DF
:10320000059005980068006920F44050059A1168FF
:10321000D26810430861059988680B694A69C969D1
:10322000184310430843049005980068C06849F2A9
:103230000C6188430499084305990968C86005989A
:103240000068406920F44070059A11689269104343
:1032500048610598006841F20001C4F2010188420A
:1032600009D0FFE70598006841F20041C4F201016E
:10327000884204D1FFE7FEF79DFA039003E0FEF7D2
:1032800087FA0390FFE70598C069B0F5004F29D190
:10329000FFE703981921A0FB0101059A1368029327
:1032A00053685A00DB0FFCF7F5FF0299864648F297
:1032B0001F53C5F2EB13AEFB0320420910014FF080
:1032C000640C02FB1CEC322202EBCC02A2FB0332A8
:1032D000F82303EA521300EB4300C2F342121044F6
:1032E000886026E003981921A0FB0101059A136864
:1032F000019353689A009B0FFCF7CCFF0199844619
:1033000048F21F52C5F2EB12ACFB023043096420B5
:1033100003FB10CC322000EB0C10A0FB0202F020CB
:1033200000EA521000EB0310C2F34312104488600D
:10333000FFE706B080BD000083B00190019890F8CF
:10334000410021283AD1FFE701988068B0F5805FFD
:1033500013D1FFE70198006978B9FFE70198006A87
:103360000090009800886FF35F2001990968486019
:103370000199086A0230086208E0019A106A411C4B
:1033800011620078019909684860FFE70199C88CCB
:103390000138C884000468B9FFE701980168C8686B
:1033A00020F08000C86001980168C86840F04000C3
:1033B000C860FFE700208DF80B0003E002208DF8C5
:1033C0000B00FFE79DF80B0003B0704780B540F29B
:1033D000B410C2F20000FEF7E3FF80BDFFE7FEE796
:1033E00081B08DF803009DF9030000280ED4FFE79B
:1033F0009DF9031001F01F02012090404A094EF28E
:103400000011CEF2000141F82200FFE701B0704741
:103410004EF60C50CEF200000068C0F30220704758
:1034200082B08DF8070000919DF9070000280AD4AA
:10343000FFE7009800019DF907104EF20042CEF21E
:10344000000288540BE0009800019DF8071001F07D
:103450000F014EF61452CEF200028854FFE702B07C
:103460007047000082B08DF8070000919DF90700B9
:1034700000280AD4FFE7009800019DF907104EF2DA
:103480000042CEF2000288540BE0009800019DF843
:10349000071001F00F014EF61452CEF200028854CC
:1034A000FFE702B07047000083B00290029800F07E
:1034B000070000904EF60C51CEF200010868019012
:1034C00001984FF6FF02104001900198009A40EADF
:1034D00002200022C0F2FA521043019001980860C5
:1034E00003B0704780B582B000200190FDF702FF65
:1034F000FFF718FCFFF7FEFAFFF78CFAFFF766FA02
:10350000FFF740FB00F020F8FFF7AEFA00F040F8BC
:10351000FFE7FEE780B584B00290EFF305800390EB
:10352000039820B1FFE76FF00500019009E000204B
:103530000190029820B1FFE7029801F0C1FBFFE77C
:10354000FFE7019804B080BD82B0EFF305800190E1
:10355000019820B1FFE76FF00500009014E040F201
:103560007000C2F20000006848B9FFE740F2700145
:10357000C2F20001012008600020009003E04FF03B
:10358000FF300090FFE7FFE7009802B070470000AF
:1035900080B582B0EFF305800190019820B1FFE77C
:1035A0006FF00500009019E040F27000C2F20000D8
:1035B000006801280DD1FFE7FFF78CFB40F2700196
:1035C000C2F200010220086001F018FC0020009007
:1035D00003E04FF0FF300090FFE7FFE7009802B0F4
:1035E00080BD0000B0B58EB00B900A91099200200A
:1035F0000690EFF305800D900D98002840F099801B
:10360000FFE70B98002800F09480FFE780200790E8
:1036100018200590002008904FF0FF300490099882
:1036200000284DD0FFE70998006820B1FFE709980E
:1036300000680890FFE70998806920B1FFE70998C2
:1036400080690590FFE7059848B1FFE7059838289D
:1036500005D8FFE709980079C00718B1FFE70020F7
:103660000C9069E00998406928B1FFE70998406922
:1036700080080790FFE70998806880B1FFE7099804
:10368000C0685C280BD3FFE70998006938B1FFE7F1
:103690000998406918B1FFE7012004900FE00998EC
:1036A000806858B9FFE70998C06838B9FFE70998FA
:1036B000006918B9FFE700200490FFE7FFE702E088
:1036C00000200490FFE70498012817D1FFE70B982A
:1036D0000899079A0A9BDDF814C0DDF824E0DEF8AB
:1036E0000850DEF81040EE46CEF80850CEF8044000
:1036F000CEF800C002F06EF9069019E00498B0B957
:10370000FFE70B980899BDF81C200A9BDDF814C050
:10371000EE4606ACCEF80440CEF800C002F00AF93E
:10372000012803D0FFE700200690FFE7FFE7FFE74F
:10373000FFE706980C90FFE70C980EB0B0BD0000B4
:1037400080B584B00390029144F63C30C2F2000090
:103750000068009040F2F020C2F2000000680430DF
:1037600001F066F808B9FFE700E0FFE703980130D1
:1037700080B9FFE7029868B1FFE740F2F020C2F29B
:1037800000000068011D44F61430C2F2000001F090
:10379000F5F83DE00098039908440190019840F243
:1037A000F021C2F20001096848600198009988423E
:1037B0000ED2FFE740F20030C2F20000006840F293
:1037C000F021C2F200010968043101F0A1F81EE005
:1037D00040F2F820C2F20000006840F2F021C2F28C
:1037E00000010968043101F093F8019844F6A02122
:1037F000C2F200010968884207D2FFE7019844F647
:10380000A021C2F20001086000E0FFE7FFE7FFE748
:1038100004B080BD80B582B0019001F0D7F844F2C9
:103820007431C2F2000108680130086040F2F020F3
:10383000C2F20000006898B9FFE7019840F2F02159
:10384000C2F20001086044F27430C2F20000006865
:10385000012803D1FFE700F0F7FA00E0FFE71CE0E2
:1038600044F60830C2F200000068A0B9FFE740F259
:10387000F020C2F200000068C06A0199C96A88425B
:1038800007D8FFE7019840F2F021C2F2000108607A
:1038900000E0FFE700E0FFE7FFE744F28030C2F21C
:1038A00000000168013101600068019948640198D5
:1038B000C06A44F28431C2F200010968884208D922
:1038C000FFE70198C06A44F28431C2F20001086047
:1038D000FFE70199C86A00EB800240F20830C2F2AB
:1038E000000000EB8200043101F048F801F09AF882
:1038F00044F60830C2F200000068C8B1FFE740F2A9
:10390000F020C2F200000068C06A0199C96A8842CA
:103910000CD2FFE74EF60451CEF200014FF080507A
:103920000860BFF34F8FBFF36F8F00E0FFE700E049
:10393000FFE702B080BD000080B584B001F046F81A
:1039400044F64030C2F200000068002840D1FFE792
:1039500044F64020C2F20000029000F0B9FF44F6A5
:103960005420C2F20000039000F0B2FF02990398C5
:1039700040F2F422C2F20002116040F20431C2F2BD
:103980000001086069460020086040F2FC12C2F2A3
:10399000000240F29C23C2F200030A20102101F031
:1039A000D3FB014644F64030C2F2000001600068DB
:1039B00060B1FFE744F64030C2F20000006846F212
:1039C0004321C0F6000101F01FF900E0FFE700E02D
:1039D000FFE701F027F804B080BD000080B582B099
:1039E000FFE744F27830C2F20000006808B3FFE756
:1039F00000F0ECFF44F62830C2F20000C068C06856
:103A000001900198043000F013FF44F27431C2F2C7
:103A1000000108680138086044F27831C2F2000100
:103A200008680138086000F0FDFF019800F08CF88C
:103A3000D7E702B080BD000080B582B00190009150
:103A40000198006CB8B1FFE70199C8680A6C10448E
:103A5000C86001988168C068884204D3FFE7019973
:103A60000868C86000E0FFE70098019AD168126C0E
:103A7000FCF788FCFFE702B080BD000080B586B08F
:103A8000059004910392002002900598806B0190AC
:103A90000598006C78B9FFE70598006848B9FFE71A
:103AA0000598806802F006F9029005990020886068
:103AB00000E0FFE741E00398B8B9FFE7059A0499F1
:103AC0005068126CFCF75EFC059948680A6C10445B
:103AD0004860059948688968884204D3FFE70599DA
:103AE0000868486000E0FFE726E0059A0499D0687E
:103AF000126CFCF747FC0599C8680A6C801AC8600C
:103B000005980168C068884206D2FFE70599886871
:103B10000A6C801AC86000E0FFE70398022809D108
:103B2000FFE7019820B1FFE701980138019000E01C
:103B3000FFE700E0FFE7FFE7FFE7019801300599A5
:103B40008863029806B080BD80B582B0009000986E
:103B500090F8590040B9FFE70098006B00F088FF2B
:103B6000009800F085FF1CE0009890F859000128AB
:103B700004D1FFE7009800F07BFF11E0009890F877
:103B8000590002280BD0FFE74FF0500080F3118856
:103B9000BFF36F8FBFF34F8F0190FFE7FEE7FFE7A3
:103BA000FFE702B080BD000082B0019040F2F42037
:103BB000C2F2000000680068B0FA80F04009019984
:103BC00008600198006848B9FFE740F2F420C2F2AB
:103BD00000000068C0680068009002E000200090CB
:103BE000FFE7009802B0704784B04FF47050009027
:103BF00040F26870C2F2000001909DF80400400796
:103C000088B1FFE7019807300190019820F0070084
:103C10000190019A40F26871C2F200010098891A7D
:103C200008440090FFE701980290029944F60C3096
:103C3000C2F200000160002141600298009A104425
:103C40000190019808380190019820F00700019038
:103C5000019A40F2FC20C2F200000260026851604A
:103C600002681160029903910199039A891A5160BF
:103C70000068039908600398406844F69C21C2F2EA
:103C8000000108600398406844F69421C2F20001E4
:103C9000086044F66821C2F200014FF0004008605D
:103CA00004B0704780B582B00190FFE7FFF796FE41
:103CB00040F20830C2F20000006802280CD3FFE78F
:103CC0004EF60451CEF200014FF080500860BFF371
:103CD0004F8FBFF36F8F00E0FFE7E7E780B584B059
:103CE000DDF818C00390029101928DF8033002981C
:103CF00018B9FFE70698006003E00198069908608C
:103D0000FFE703980699C863029806990864069825
:103D1000012101F0A1FA9DF80300069981F84C00F9
:103D200004B080BD80B588B0DDF834C0DDF830C0A7
:103D3000DDF82CC0DDF828C00690059104920393AD
:103D40000C98006B04998900A522FCF760FB0C9885
:103D5000006B049900EB810004380290029820F077
:103D6000070002909DF80800400758B1FFE74FF0A8
:103D7000500080F31188BFF36F8FBFF34F8F079010
:103D8000FFE7FEE70598F8B1FFE700200190FFE7A5
:103D900001980F2813D8FFE70598019A805C0C99C9
:103DA000114481F8340005980199405C08B9FFE797
:103DB00005E0FFE7FFE7019801300190E8E70C9983
:103DC000002081F8430004E00C99002081F83400C1
:103DD000FFE70A98382803D3FFE737200A9000E06E
:103DE000FFE70A980C99C8620A980C99C8640C9964
:103DF0000020009008650C98043000F081FD0C98BC
:103E0000183000F07DFD00980C9909610A99C1F104
:103E100038010C9A91610C9949620C9948650C998A
:103E200081F8580002980699039A00F0D1FC0C9989
:103E300008600B9820B1FFE70C980B99086000E030
:103E4000FFE708B080BD000080B584B0002003907B
:103E5000FFE70398372810D8FFE7039800EB8001AD
:103E600040F20830C2F2000000EB810000F030FDAB
:103E7000FFE7039801300390EBE744F66C20C2F2B1
:103E80000000019000F024FD44F68020C2F2000002
:103E9000029000F01DFD44F6B420C2F2000000F0D4
:103EA00017FD44F62830C2F2000000F011FD44F680
:103EB0001430C2F2000000F00BFD0199029840F2AC
:103EC000F822C2F20002116040F20031C2F2000199
:103ED000086004B080BD000083B0029044F60C304E
:103EE000C2F200000190FFE7019800680299884241
:103EF00005D2FFE7FFE7019800680190F4E7019819
:103F0000009000980199496808440299884209D1B3
:103F1000FFE7029842680199486810444860019898
:103F2000029000E0FFE7029800900098029949682B
:103F3000084401990968884220D1FFE70198006888
:103F400040F2FC21C2F20001096888420DD0FFE76F
:103F500001980068426802994868104448600198D6
:103F6000006800680299086007E040F2FC20C2F295
:103F70000000006802990860FFE704E0019800680B
:103F800002990860FFE701980299884204D0FFE790
:103F900002980199086000E0FFE703B07047000055
:103FA00080B586B0059004910392029300200190A1
:103FB000049805994860059800610498039988421F
:103FC00016D8FFE703980299401A05998969884233
:103FD00003D3FFE70120019009E040F20430C2F270
:103FE000000000680599043100F092FCFFE717E03B
:103FF00003980299884208D2FFE704980299884200
:1040000003D3FFE70120019009E040F2F420C2F25F
:10401000000000680599043100F07AFCFFE7FFE733
:10402000019806B080BD000080B582B0019000F01C
:10403000CDFC0198806B18B9FFE70120009002E0E9
:1040400000200090FFE700F0EDFC009802B080BD7A
:1040500080B582B0019000F0B9FC0198806B0199A5
:10406000C96B884203D1FFE70120009002E00020E5
:104070000090FFE700F0D6FC009802B080BD000081
:1040800008480068006880F308884FF0000080F35B
:10409000148862B661B6BFF34F8FBFF36F8F00DF36
:1040A00000BF000008ED00E080B586B004900391E9
:1040B00040F2F420C2F200000068C068C0680190BD
:1040C0000198043000F0B4FB019890F828004007F4
:1040D000002823D5FFE70198049B81691944039ABE
:1040E000FFF75EFFC0B1FFE70198049A694600231D
:1040F0000B60194601F0CAFF0290029858B9FFE719
:104100004FF0500080F31188BFF36F8FBFF34F8FD4
:104110000590FFE7FEE700E0FFE707E0019991F86F
:10412000280000F0FE0081F82800FFE70198016AEE
:10413000884706B080BD000080B58EB0FFE744F62A
:104140004030C2F20000006807A9002201F09EFA88
:10415000002800F0B880FFE70798B0F1FF3F17DCB8
:10416000FFE707A804300290029858B9FFE74FF024
:10417000500080F31188BFF36F8FBFF34F8F0D9006
:10418000FFE7FEE702990A6848688968904700E0FF
:10419000FFE70798002800F19580FFE7099806904F
:1041A0000698406928B1FFE70698043000F040FB0C
:1041B00000E0FFE705A800F0FBF8039007980190E6
:1041C000092800F27D800199DFE801F00505053D31
:1041D000456605053D45069991F8280040F0010027
:1041E00081F828000698089B81691944039AFFF713
:1041F000D7FE30B3FFE70698016A8847069890F823
:104200002800400700281AD5FFE706980899826918
:104210000A44694600230B60194601F037FF0490F9
:10422000049858B9FFE74FF0500080F31188BFF3AE
:104230006F8FBFF34F8F0C90FFE7FEE700E0FFE7C3
:1042400000E0FFE73DE0069991F8280000F0FE004D
:1042500081F8280035E0069991F8280040F0010027
:1042600081F828000898069988610698806958B9ED
:10427000FFE74FF0500080F31188BFF36F8FBFF35B
:104280004F8F0B90FFE7FEE70698039B8169194467
:104290001A46FFF785FE14E0069890F8280080077C
:1042A000002804D4FFE7069800F0E2FB07E0069937
:1042B00091F8280000F0FE0081F82800FFE700E0F8
:1042C000FFE7FFE73BE70EB080BD000080B584B09C
:1042D0000390029100F002FE684600F069F8019038
:1042E0000098D8BBFFE7029860B9FFE703980199EF
:1042F000884207D8FFE701F0BBFD03980199FFF75B
:10430000D3FE2AE0029858B1FFE740F20430C2F22F
:10431000000000680068B0FA80F040090290FFE7F2
:1043200044F64030C2F2000000680399019A891AED
:10433000029A00F093FC01F09BFD60B9FFE74EF696
:104340000451CEF200014FF080500860BFF34F8F50
:10435000BFF36F8F00E0FFE7FFE702E001F088FDA9
:10436000FFE704B080BD000081B040F2F820C2F247
:1043700000000068006840B9FFE744F6A021C2F2DF
:1043800000014FF0FF3008600FE040F2F820C2F269
:1043900000000068C068C06800900098406844F65B
:1043A000A021C2F200010860FFE701B070470000E1
:1043B00080B582B0019001F091FB0090009840F22E
:1043C000EC21C2F200010968884206D2FFE700F042
:1043D00011F801990120086003E0019900200860AC
:1043E000FFE7009840F2EC21C2F20001086000985B
:1043F00002B080BD80B588B0FFE740F2F420C2F281
:1044000000000068006800284ED0FFE740F2F4206A
:10441000C2F200000168C968096806910068C068B6
:10442000C06803900398043000F002FA0398016A10
:104430008847039890F828004007002832D5FFE706
:104440000698039989690844059005980699884259
:104450000FD9FFE70598039948600398006140F27F
:10446000F420C2F2000000680399043100F050FA11
:1044700017E00398069A694600230B60194601F07D
:1044800005FE0290029858B9FFE74FF0500080F304
:104490001188BFF36F8FBFF34F8F0790FFE7FEE7E1
:1044A000FFE700E0FFE7A8E740F2F422C2F20002D3
:1044B0001068049040F20431C2F2000108681060F4
:1044C0000498086008B080BD83B00020009040F2DE
:1044D0000C00C2F200000068013058B1FFE74FF055
:1044E000500080F31188BFF36F8FBFF34F8F02909E
:1044F000FFE7FEE74FF0500080F31188BFF36F8FA6
:10450000BFF34F8F0190FFE7009808B9FFE7FBE783
:1045100003B0704780B584B00390FFE701A8FFF7B0
:1045200043FB029002980199FFF7D0FEFFF704FECB
:10453000F4E7000080B582B0019000F047FA0198DE
:1045400090F845008DF80300FFE79DF9030001286E
:1045500016DBFFE70198406A58B1FFE70198243065
:1045600001F01EFC18B1FFE700F0F4FB00E0FFE7EC
:1045700000E005E09DF8030001388DF80300E4E752
:104580000199FF2081F8450000F04CFA00F01EFA76
:10459000019890F844008DF80200FFE79DF90200B1
:1045A000012816DBFFE70198006980B1FFE7019859
:1045B000103001F0F5FB18B1FFE700F0CBFB00E095
:1045C000FFE79DF8020001388DF8020000E000E0EE
:1045D000E4E70199FF2081F8440000F023FA02B0DB
:1045E00080BD000080B58AB006900020029000F0E7
:1045F00075FC40F2FC20C2F20000006818B9FFE729
:10460000FFF7F2FA00E0FFE7069844F66821C2F2ED
:1046100000010968084240F0C580FFE7069800B332
:10462000FFE70698083006909DF818004007B0B1E3
:10463000FFE7069820F00700083006909DF8180064
:10464000400758B1FFE74FF0500080F31188BFF3E7
:104650006F8FBFF34F8F0990FFE7FEE700E0FFE7A2
:1046600000E0FFE70698002800F09A80FFE7069830
:1046700044F69421C2F200010968884200F2908059
:10468000FFE744F60C30C2F2000004900068059089
:10469000FFE705984168069A00209142019007D2F1
:1046A000FFE705980068002818BF01200190FFE788
:1046B0000198C00730B1FFE705980490059800689D
:1046C0000590E6E7059840F2FC21C2F20001096876
:1046D000884263D0FFE7049800680830029005988C
:1046E000006804990860059840680699401A1128E6
:1046F00021D3FFE705980699084403909DF80C0024
:10470000400758B1FFE74FF0500080F31188BFF326
:104710006F8FBFF34F8F0890FFE7FEE70598406863
:104720000699401A039948600698059948600398CD
:10473000FFF7D2FB00E0FFE70598426844F69420BB
:10474000C2F200000168891A0160006844F69C21E9
:10475000C2F20001096888420BD2FFE744F69420B8
:10476000C2F20000006844F69C21C2F20001086019
:1047700000E0FFE744F66820C2F2000002680599F5
:1047800048681043486005990020086044F6A82155
:10479000C2F2000108680130086000E0FFE700E0B5
:1047A000FFE700E0FFE701F063FB9DF8080040072A
:1047B00058B1FFE74FF0500080F31188BFF36F8FBF
:1047C000BFF34F8F0790FFE7FEE702980AB080BD66
:1047D00083B00290019100920298043802900299ED
:1047E0004FF080700860029804380290019820F021
:1047F000010002990860029804380290029944F27C
:10480000C940C0F600000860029814380290009871
:104810000299086002980438029002996FF0020031
:104820000860029820380290029803B07047000098
:1048300082B00190019800690090019841688068F9
:1048400088600199486889684860009840680199C3
:10485000884205D1FFE7019880680099486000E030
:10486000FFE7019900200861009908680138086095
:104870000098006802B0704783B0029001910092E6
:10488000029944F28850C2F200000860019944F293
:104890008830C2F20000086000998020086003B0F0
:1048A0007047000083B0029001910092029944F693
:1048B000E410C2F200000860019944F2E450C2F230
:1048C0000000086000994FF48070086003B07047E2
:1048D00081B00090009901F10800486000994FF004
:1048E000FF308860009901F10800C860009901F16B
:1048F0000800086100990020086001B070470000BE
:1049000081B0009000990020086101B0704700005C
:1049100084B00390029102980068009000980130E2
:1049200020B9FFE703980069019010E00398083070
:104930000190FFE70198406800680099884205D817
:10494000FFE7FFE7019840680190F3E7FFE7019870
:10495000406802994860029841688860019802990D
:104960008860029801994860039802990861039948
:1049700008680130086004B07047000083B00290FE
:104980000191029840680090009801994860009851
:104990008068019988600198009989684860019849
:1049A00000998860029801990861029908680130AD
:1049B000086003B070470000DFF80C00016841F4A4
:1049C000700101607047000088ED00E082B04FF098
:1049D000500080F31188BFF36F8FBFF34F8F0190AA
:1049E00040F20C00C2F20000016801310160006871
:1049F000012814D1FFE74EF60450CEF20000006803
:104A0000000658B1FFE74FF0500080F31188BFF364
:104A10006F8FBFF34F8F0090FFE7FEE7FFE702B015
:104A20007047000082B040F20C00C2F20000006843
:104A300058B9FFE74FF0500080F31188BFF36F8F34
:104A4000BFF34F8F0090FFE7FEE740F20C00C2F289
:104A50000000016801390160006830B9FFE70020FB
:104A60000190019880F31188FFE702B070470000C1
:104A700080B586B0039003980290039800285CD01C
:104A8000FFE7029808380290029801900198406868
:104A900044F66821C2F20001096808420BD1FFE721
:104AA0004FF0500080F31188BFF36F8FBFF34F8F2B
:104AB0000590FFE7FEE70198006858B1FFE74FF067
:104AC000500080F31188BFF36F8FBFF34F8F0490B6
:104AD000FFE7FEE70198406844F66821C2F2000152
:104AE0000968084227D0FFE70198006808BBFFE784
:104AF00044F66820C2F200000268019948689043B9
:104B0000486000F0EBF90198426844F69421C2F243
:104B100000010868104408600198FFF7DDF944F6C9
:104B2000AC21C2F2000108680130086001F0A0F970
:104B300000E0FFE700E0FFE7FFE706B080BD000010
:104B40004EF21001CEF20001002008604EF2180271
:104B5000CEF20002106040F20000C2F200000068D5
:104B600044F6D352C1F26202A0FB02024FF0FF30C2
:104B700000EB92104EF21402CEF2000210600720F9
:104B80000860704784B0EFF3058001900198102809
:104B90001ED3FFE701984EF2F031CEF20001405CE7
:104BA0008DF803009DF8030044F26831C2F2000161
:104BB000097888420BDAFFE74FF0500080F3118844
:104BC000BFF36F8FBFF34F8F0390FFE7FEE7FFE761
:104BD0004EF60C50CEF20000006800F4E06044F2A3
:104BE0006C31C2F20001096888420BD9FFE74FF02F
:104BF000500080F31188BFF36F8FBFF34F8F029087
:104C0000FFE7FEE704B0704783B0029001910020F7
:104C10000090FFE7009807281DD8FFE7009944F6A9
:104C2000C820C2F2000050F8310070B9FFE70198C7
:104C3000009A44F6C821C2F2000141F832000298FD
:104C4000009A01EBC201486005E0FFE7FFE700982A
:104C500001300090DEE703B07047000080B584B0FB
:104C600003900291019203980090FFF7AFFE009825
:104C700090F94400013028B9FFE70099002081F83D
:104C80004400FFE7009890F94500013028B9FFE79C
:104C90000099002081F84500FFE7FFF7C3FE009868
:104CA000806B38B9FFE7009824300299019A00F030
:104CB0007BF800E0FFE70098FFF73CFC04B080BD04
:104CC00080B584B00290002001900298E0B1FFE727
:104CD00044F27C30C2F20000006858B1FFE74FF0A8
:104CE000500080F31188BFF36F8FBFF34F8F039095
:104CF000FFE7FEE700F0F2F802980021FEF720FD42
:104D000001F0B6F8019000E0FFE7019860B9FFE715
:104D10004EF60451CEF200014FF080500860BFF310
:104D20004F8FBFF36F8F00E0FFE704B080BD00003E
:104D300081B0009044F6A420C2F2000000680099FF
:104D4000086044F63C30C2F20000006800994860F8
:104D500001B0704744F64831C2F2000101200860FA
:104D60007047000080B584B002900191029858B954
:104D7000FFE74FF0500080F31188BFF36F8FBFF350
:104D80004F8F0390FFE7FEE7029840F2F021C2F256
:104D9000000109681831FFF7BBFD01980121FEF7FA
:104DA000CFFC04B080BD000080B584B002900191BA
:104DB0000092029858B9FFE74FF0500080F3118835
:104DC000BFF36F8FBFF34F8F0390FFE7FEE70298AB
:104DD00040F2F021C2F2000109681831FFF7CEFD60
:104DE000009820B1FFE74FF0FF300190FFE70198F6
:104DF0000099FEF7A5FC04B080BD000080B58AB024
:104E0000002003900690059006A805A904AAFFF7C4
:104E100033FD039B049A0599DDF818C06846C0F875
:104E200008C04160036043F6A540C0F6000046F2AA
:104E30003E21C0F6000100F0CDFD014644F6982069
:104E4000C2F200000160006818B1FFE7012007907E
:104E500002E000200790FFE70798012804D1FFE750
:104E600001F0CAF8079000E0FFE70798012823D176
:104E7000FFE74FF0500080F31188BFF36F8FBFF34F
:104E80004F8F099044F6A021C2F200014FF0FF308D
:104E9000086044F60831C2F200010120086044F6BF
:104EA0003C31C2F200010020086000F083F808B134
:104EB000FFE700E0FFE70FE00798013058B9FFE790
:104EC0004FF0500080F31188BFF36F8FBFF34F8F07
:104ED0000890FFE7FEE7FFE70AB080BD44F27C31AF
:104EE000C2F20001086801300860704783B044F2E4
:104EF0007C30C2F20000006838B1FFE744F6483168
:104F0000C2F200010120086051E044F64831C2F2CB
:104F100000010020086044F28430C2F20000006802
:104F20000190FFE7019800EB800140F20830C2F2E7
:104F3000000050F8210090B9FFE7019858B9FFE749
:104F40004FF0500080F31188BFF36F8FBFF34F8F86
:104F50000290FFE7FEE7019801380190E2E701982F
:104F600000EB800140F20830C2F2000000EB81004B
:104F70000090009948684068486000994868083186
:104F8000884205D1FFE70099486840684860FFE71C
:104F900000984068C06840F2F021C2F20001086049
:104FA000019844F28431C2F200010860FFE703B0C7
:104FB0007047000080B588B04EF60050CEF2000079
:104FC00000684CF27121C4F20F1188420BD1FFE747
:104FD0004FF0500080F31188BFF36F8FBFF34F8FF6
:104FE0000790FFE7FEE74EF60050CEF200000068A3
:104FF0004CF27021C4F20F1188420BD1FFE74FF041
:10500000500080F31188BFF36F8FBFF34F8F06906E
:10501000FFE7FEE74EF20040CEF200000390017879
:105020000491FF21017000788DF80B009DF80B00B2
:1050300000F0500044F26831C2F20001087044F2FE
:105040006C31C2F2000107200860FFE79DF80B00F9
:10505000000600280DD5FFE744F26C31C2F20001D2
:105060000868013808609DF80B0040008DF80B00BF
:10507000ECE744F26C30C2F20000006803280BD069
:10508000FFE74FF0500080F31188BFF36F8FBFF33D
:105090004F8F0590FFE7FEE744F26C31C2F200014A
:1050A000086800020860086800F4E060086004987E
:1050B0004EF20041CEF2000108704EF62051CEF2C1
:1050C0000001086840F470000860086840F0704013
:1050D0000860FFF735FD40F20C01C2F2000100202C
:1050E00001900860FFF768FC4EF63471CEF20001C3
:1050F000086840F040400860FEF7C2FFFFF7F6FE88
:10510000FFF7E2F9019808B080BD000080B582B0D9
:105110004FF0500080F31188BFF36F8FBFF34F8FB4
:10512000009000F0E5FC40B1FFE74EF60451CEF2EE
:1051300000014FF080500860FFE7002001900198C7
:1051400080F3118802B080BD80B590B0844612987B
:10515000CDF828C00991089207938DF81B000A9892
:1051600058B9FFE74FF0500080F31188BFF36F8FFD
:10517000BFF34F8F0F90FFE7FEE7079858B9FFE79F
:105180004FF0500080F31188BFF36F8FBFF34F8F44
:105190000E90FFE7FEE708990020039031B1FFE78A
:1051A0000998B0FA80F040090390FFE70398C00720
:1051B00058B1FFE74FF0500080F31188BFF36F8FB5
:1051C000BFF34F8F0D90FFE7FEE708990020029094
:1051D00031B9FFE70998002818BF01200290FFE7C6
:1051E0000298C00758B1FFE74FF0500080F31188D4
:1051F000BFF36F8FBFF34F8F0C90FFE7FEE7502098
:105200000490049850280BD0FFE74FF0500080F333
:105210001188BFF36F8FBFF34F8F0B90FFE7FEE74F
:10522000049807980590059888B1FFE70599012033
:1052300081F846000A980999089A9DF81B30DDF814
:1052400014C0EE46CEF800C0FEF748FD00E0FFE7D0
:10525000059810B080BD000080B584B00290019127
:1052600002980090009858B9FFE74FF0500080F383
:105270001188BFF36F8FBFF34F8F0390FFE7FEE7F7
:10528000FFF7A4FB00990B68C86B0A6C00FB0230A7
:105290008860009900208863009908684860009938
:1052A0000B68C86B0A6C013800FB0230C8600099BB
:1052B000FF2081F84400009981F845000198D0B999
:1052C000FFE700980069A0B1FFE70098103000F0F8
:1052D00067FD60B1FFE74EF60451CEF200014FF0DA
:1052E00080500860BFF34F8FBFF36F8F00E0FFE780
:1052F00000E0FFE708E000981030FFF7E9FA0098B7
:105300002430FFF7E5FAFFE7FFF78CFB012004B03C
:1053100080BD000080B592B00C900B910A92099369
:10532000002008900C980490049858B9FFE74FF0BB
:10533000500080F31188BFF36F8FBFF34F8F119030
:10534000FFE7FEE70B990020039039B9FFE70498C7
:10535000006C002818BF01200390FFE70398C007E6
:1053600058B1FFE74FF0500080F31188BFF36F8F03
:10537000BFF34F8F1090FFE7FEE709990020022945
:10538000029007D1FFE70498C06B013818BF0120D5
:105390000290FFE70298C00758B1FFE74FF05000B6
:1053A00080F31188BFF36F8FBFF34F8F0F90FFE72C
:1053B000FEE700F077FB01460020019031B9FFE7DE
:1053C0000A98002818BF01200190FFE70198C00744
:1053D00058B1FFE74FF0500080F31188BFF36F8F93
:1053E000BFF34F8F0E90FFE7FEE7FFE7FFF7EEFA00
:1053F0000498806B0499C96B884204D3FFE709982D
:10540000022834D1FFE704980B99099AFEF736FB7E
:1054100007900498406AA0B1FFE70498243000F098
:10542000BFFC60B1FFE74EF60451CEF200014FF031
:1054300080500860BFF34F8FBFF36F8F00E0FFE72E
:1054400010E0079860B1FFE74EF60451CEF200017C
:105450004FF080500860BFF34F8FBFF36F8F00E0B5
:10546000FFE7FFE7FFF7DEFA01200D9065E00A98FD
:1054700028B9FFE7FFF7D6FA00200D905DE0089805
:1054800030B9FFE705A8FFF753FC0120089000E0C2
:10549000FFE7FFE7FFE7FFF7C5FAFFF71FFDFFF79D
:1054A00095FA049890F94400013028B9FFE704996F
:1054B000002081F84400FFE7049890F9450001308E
:1054C00028B9FFE70499002081F84500FFE7FFF7BE
:1054D000A9FA05A80AA900F0C7F928BBFFE70498B4
:1054E000FEF7B6FDC8B1FFE7049810300A99FFF740
:1054F00039FC0498FFF71EF800F0BAFC60B9FFE72A
:105500004EF60451CEF200014FF080500860BFF318
:105510004F8FBFF36F8FFFE705E00498FFF70AF89E
:1055200000F0A6FCFFE707E00498FFF703F800F09F
:105530009FFC00200D9000E058E70D9812B080BD50
:1055400080B592B00B900A91099208930B98059040
:10555000059858B9FFE74FF0500080F31188BFF36A
:105560006F8FBFF34F8F0E90FFE7FEE70A99002081
:10557000029039B9FFE70598006C002818BF012098
:105580000290FFE70298C00758B1FFE74FF05000C4
:1055900080F31188BFF36F8FBFF34F8F0D90FFE73C
:1055A000FEE7089900200229019007D1FFE705983E
:1055B000C06B013818BF01200190FFE70198C007B8
:1055C00058B1FFE74FF0500080F31188BFF36F8FA1
:1055D000BFF34F8F0C90FFE7FEE7FFF7D3FAEFF32F
:1055E00011814FF0500080F31188BFF36F8FBFF32C
:1055F0004F8F10910F90109806900598806B059929
:10560000C96B884204D3FFE70898022833D1FFE72B
:10561000059890F845008DF813000598806B03906D
:1056200005980A99089AFEF729FA9DF913000130A6
:10563000B8B9FFE70598406A88B1FFE705982430BC
:1056400000F0AEFB48B1FFE7099820B1FFE70999E8
:105650000120086000E0FFE700E0FFE700E0FFE76F
:1056600006E09DF813000130059981F84500FFE739
:105670000120079002E000200790FFE706981190B4
:10568000119880F31188079812B080BD80B58EB054
:1056900009900891079200200690099803900398BA
:1056A00058B9FFE74FF0500080F31188BFF36F8FB8
:1056B000BFF34F8F0D90FFE7FEE7089900200190A0
:1056C00039B9FFE70398006C002818BF012001904A
:1056D000FFE70198C00758B1FFE74FF0500080F393
:1056E0001188BFF36F8FBFF34F8F0C90FFE7FEE77A
:1056F00000F0D8F901460020009031B9FFE7079883
:10570000002818BF01200090FFE70098C00758B19B
:10571000FFE74FF0500080F31188BFF36F8FBFF3A6
:105720004F8F0B90FFE7FEE7FFE7FFF74FF9039876
:10573000806B0290029830B3FFE703980899FEF758
:105740007BF9029801380399886303980069A0B136
:10575000FFE70398103000F023FB60B1FFE74EF63F
:105760000451CEF200014FF080500860BFF34F8F1C
:10577000BFF36F8F00E0FFE700E0FFE7FFF752F9AC
:1057800001200A906DE0079828B9FFE7FFF74AF972
:1057900000200A9065E0069830B9FFE704A8FFF7FB
:1057A000C7FA0120069000E0FFE7FFE7FFE7FFF7F9
:1057B00039F9FFF793FBFFF709F9039890F94400D3
:1057C000013028B9FFE70399002081F84400FFE782
:1057D000039890F94500013028B9FFE703990020AC
:1057E00081F84500FFE7FFF71DF904A807A900F0BD
:1057F0003BF830BBFFE70398FEF716FCD0B1FFE79C
:10580000039824300799FFF7ADFA0398FEF792FE4C
:1058100000F02EFB60B9FFE74EF60451CEF2000116
:105820004FF080500860BFF34F8FBFF36F8F00E0E1
:10583000FFE705E00398FEF77DFE00F019FBFFE7A8
:105840000EE00398FEF776FE00F012FB0398FEF7D9
:10585000EBFB18B1FFE700200A9002E0FFE7FFE74B
:1058600063E70A980EB080BD80B588B005900491BA
:10587000059858B9FFE74FF0500080F31188BFF347
:105880006F8FBFF34F8F0790FFE7FEE7049858B97B
:10589000FFE74FF0500080F31188BFF36F8FBFF325
:1058A0004F8F0690FFE7FEE7FFF790F844F63C3095
:1058B000C2F2000000680290029805994968401AF7
:1058C000019004980068013018B9FFE700200390A8
:1058D0002BE044F6A420C2F2000000680599096894
:1058E000884209D0FFE7029805994968884203D3A6
:1058F000FFE70120039017E00198049909688842A6
:105900000BD2FFE7019A04990868801A086005988D
:10591000FFF70EFA0020039005E0049900200860CC
:1059200001200390FFE7FFE7FFE7FFF77BF803980D
:1059300008B080BD70B58CB0DDF844C0DDF840C063
:105940000B900A91ADF826200893BDF82600800040
:10595000FEF748FE0590059880B1FFE75C20FEF752
:1059600041FE0790079820B1FFE705980799086363
:1059700003E00598FFF77CF8FFE702E000200790BE
:10598000FFE70798F0B1FFE70798002680F8596015
:105990000B980A99BDF82620089BDDF840C0119CA1
:1059A000079DEE46CEF80C60CEF80850CEF80440C5
:1059B000CEF800C0FEF7B6F90798FDF72BFF0120DF
:1059C000069003E04FF0FF300690FFE706980CB01A
:1059D00070BD0000B0B58EB0DDF850C0DDF84CC031
:1059E000DDF848C00A90099108920793139858B9B6
:1059F000FFE74FF0500080F31188BFF36F8FBFF3C4
:105A00004F8F0D90FFE7FEE7149858B9FFE74FF06E
:105A1000500080F31188BFF36F8FBFF34F8F0C904E
:105A2000FFE7FEE75C20049004985C280BD0FFE7BA
:105A30004FF0500080F31188BFF36F8FBFF34F8F8B
:105A40000B90FFE7FEE70498149820B3FFE7139844
:105A500008B3FFE71498069013980699086306990F
:105A6000022081F859000A980999089A079BDDF8E5
:105A700048C0069CEE460025CEF80C50CEF80840F3
:105A800005ACCEF80440CEF800C0FEF74BF90698FE
:105A9000FDF7C0FE02E000200590FFE705980EB07C
:105AA000B0BD000081B044F60830C2F200000068CA
:105AB00018B9FFE7012000900DE044F27C30C2F2FB
:105AC0000000006818B9FFE70220009002E0002003
:105AD0000090FFE7FFE7009801B0704781B044F6FF
